:020000040000fa
:080000000002040000000000f2
:020000040000fa
:10000800a0020000a0020000a0020000a002000060
:10001800a0020000a0020000a0020000a002000050
:10002800a0020000a0020000a00200003022000090
:10003800a0020000a0020000a0020000a002000030
:10004800a0020000a0020000a0020000201d000085
:10005800a0020000a0020000a0020000a002000010
:10006800a0020000a0020000a0020000a002000000
:10007800a0020000a0020000a0020000a0020000f0
:10008800a0020000a0020000a0020000a0020000e0
:10009800a0020000a00200005e1d0000a0020000f7
:1000a800a0020000a0020000a0020000a0020000c0
:1000b800a0020000a0020000a0020000a0020000b0
:1000c800a0020000a0020000a0020000a0020000a0
:1000d800a0020000a0020000a0020000a002000090
:1000e800a0020000a0020000a0020000a002000080
:1000f800a0020000a0020000a0020000a002000070
:10010800a0020000a0020000a0020000a00200005f
:10011800a0020000a0020000a0020000a00200004f
:10012800a0020000a0020000a0020000a00200003f
:10013800a0020000a0020000a0020000a00200002f
:10014800a0020000a0020000a0020000a00200001f
:10015800a0020000a0020000a0020000a00200000f
:10016800a0020000a0020000a0020000a0020000ff
:10017800a0020000a0020000a0020000a0020000ef
:10018800a0020000a0020000a0020000a0020000df
:10019800a0020000a0020000a0020000a0020000cf
:1001a800a0020000a0020000a0020000a0020000bf
:1001b800a0020000a0020000a0020000a0020000af
:1001c800a0020000a0020000a0020000a00200009f
:1001d800a0020000a0020000a0020000a00200008f
:1001e800a0020000a0020000a0020000a00200007f
:0801f800a0020000a0020000bb
:020000040000fa
:10020800a0020000a0020000a0020000a00200005e
:10021800a0020000a0020000a0020000a00200004e
:10022800a0020000a0020000a0020000302200008e
:10023800a0020000a0020000a0020000a00200002e
:10024800a0020000a0020000a0020000201d000083
:10025800a0020000a0020000a0020000a00200000e
:10026800a0020000a0020000a0020000a0020000fe
:10027800a0020000a0020000a0020000a0020000ee
:10028800a0020000a0020000a0020000a0020000de
:10029800a0020000a00200005e1d0000a0020000f5
:1002a800a0020000a0020000a0020000a0020000be
:1002b800a0020000a0020000a0020000a0020000ae
:1002c800a0020000a0020000a0020000a00200009e
:1002d800a0020000a0020000a0020000a00200008e
:1002e800a0020000a0020000a0020000a00200007e
:1002f800a0020000a0020000a0020000a00200006e
:10030800a0020000a0020000a0020000a00200005d
:10031800a0020000a0020000a0020000a00200004d
:10032800a0020000a0020000a0020000a00200003d
:10033800a0020000a0020000a0020000a00200002d
:10034800a0020000a0020000a0020000a00200001d
:10035800a0020000a0020000a0020000a00200000d
:10036800a0020000a0020000a0020000a0020000fd
:10037800a0020000a0020000a0020000a0020000ed
:10038800a0020000a0020000a0020000a0020000dd
:10039800a0020000a0020000a0020000a0020000cd
:1003a800a0020000a0020000a0020000a0020000bd
:1003b800a0020000a0020000a0020000a0020000ad
:1003c800a0020000a0020000a0020000a00200009d
:1003d800a0020000a0020000a0020000a00200008d
:1003e800a0020000a0020000a0020000a00200007d
:0803f800a0020000a0020000b9
:020000040000fa
:100400000ff520000e7f22000e0188000000000082
:1004100000012000200288000c000700600021007d
:100420000100200011000700000020000000e00093
:10043000020032000000020000000000ce21020095
:10044000000000000040da000000fe004440a90067
:10045000604320000000e0000300320000002000a4
:10046000a00188004440a800000006009101880017
:10047000800078000000eb0015003700e2804000ab
:1004800032a0b4009101ba00e280400032a0b40072
:100490009102ba00e280400032a0b4000002eb00fa
:1004a000472bde00f507b200602ce10004003a00a3
:1004b0000059eb008301e900fdff3e000400370016
:1004c0006128e100010032000082eb000400070017
:1004d0001101ba000200e000e8ff3a000000060047
:1004e0003159ba008301e9000c0032002159ba00e9
:1004f0008301e900080032000400e00003003a0034
:10050000e280400032a0b400f5ff370011d9ba00f4
:100510008301e900faff3a008100e800e180400031
:1005200032a0b4000000060000000000000000003f
:1005300000000000000000000000000000000000bb
:100540000040da000000fe00839f68000100e00028
:1005500002003d0060001000e08018000300e00091
:1005600002003d0060011100e08119000500070054
:100570004f00e00002003b0060001000e080180027
:10058000000006006022b800060220000000d00033
:100590008180d2000482d2008582d2000000a000b7
:1005a0000202520083825a0003003100020242001c
:1005b00083824a000000a1000603e900f3ff3a002d
:1005c00000000600000278008042eb00b4cf120069
:1005d000fdff3a000080ea00000042000000060033
:1005e000889fbe000004be000b00370009007800a1
:1005f000f4ff0700000178000800be003900070082
:10060000e00f50000a0032000800e8009900fb00eb
:100610000a00070000047800e00f540004003200d4
:100620000042eb00984f1200f0ff3a000004eb008c
:10063000080078004f04be0000000600881f780004
:100640000002eb006103b800060478006121b800e5
:1006500006004100e842790081cf520004003200d8
:100660000402e800e0cf5200f8ff3a000000eb007f
:100670004f047800000006000000fa00e8815700ef
:100680004fb99700020007000080fa000000060042
:100690000c00fa0000027800820278000000eb00f3
:1006a000e18f50000d0036008100e900f1bf9f008e
:1006b000b0bf9f00a4bf9f00c4bf9f00240c2000b8
:1006c000d4bf9f0003017800850078006c8057003c
:1006d000150007002fba9700004aeb000080fa00cf
:1006e000000006000b00370030427800e04f520057
:1006f000030032000201e900b14f52000500320050
:100700000480fb00954278008582fb0005005000c4
:100710000000060081027800e00f5100f2ff3a006d
:1007200002007800000006002f03b000889fbe0082
:100730008a9fbe008c9fbe008e1f7800e0af9f0096
:10074000c1af9f00b2b79f008006eb006e0237007a
:10075000cfa897008100e800c1af9f0054c2b3004a
:10076000844f500006003a00010278000006eb00ba
:1007700001c3b30000c2b300b7c2b3000700370023
:100780000000fb00efa897006b020700e10f40009c
:100790005d0232008d06e8005b02370084027800bb
:1007a00034437800d2c2b300824f530009003200b4
:1007b00005003c00804f530008003200874f530073
:1007c0000c003a0007003700814f530009003a003f
:1007d000060037000c30a000f0ff37000c00a0002e
:1007e000eeff37000c10a000ecff37000c20a0003b
:1007f000eaff370062026600010032000c00a1002f
:1008000068026600010032000c20a1000602fb0015
:100810000403b100e90f52000c003e00050378000c
:100820000002eb006a22b900b603fb000703b10027
:1008300004824300860278009603fb000703b100a0
:10084000e98f5300f7ff3600080037000002eb0085
:10085000a7c2b300874f530004003a00bfb197000e
:1008600043027800b3b79f008502e8000007eb0061
:10087000e6c2b300954f13000a003a000ce0a00056
:1008800064435300d54f1300020032000503780083
:10089000080037003fb3970046077800b6b79f00bf
:1008a0008502e80005037800080037006a70b90087
:1008b0000087430086027800b603fb000703b100ff
:1008c000e98f5300f9ff3600f6ff3700b642780093
:1008d000c6af9f00c0c6b30080cf520025003200d3
:1008e0000f003c0036c6b30086cf52006e003200c7
:1008f00004003c00e0cf5200080232006b4353007a
:100900000f00370046c6b30086cf520017003200f2
:100910006543430086cf520083003a00130037003e
:1009200036c7b30086cf52001f00320007003c00dc
:100930006443530086cf5200140032000643e8009f
:1009400086cf520078003a001300370056c7b30034
:1009500086cf5200790032006343430086cf5200b5
:1009600071003a00a5c79f000d003700a5c79f0082
:1009700074003700f003660005012000010032001a
:100980000500280005067600d0ff3700a5c79f00a8
:100990000c60a0006b003700a5c79f000c50a000a2
:1009a0000c70a00067003700a5c79f00bfb097007c
:1009b000c1027800b1b79f0005047800e08f5200b3
:1009c00001003a00c8f12000080378008002eb0023
:1009d000010037008502e800e6c37a00e0cf53004b
:1009e000fcff3a0085047800e00f57000300320056
:1009f000890f5700010031008e0478000007eb00da
:100a0000890f52000100360009075200680666008f
:100a100014003a0007003700efa8970000022000fa
:100a2000c5010700e10f4000010032008d06e8001b
:100a30000e07e900e00f5700f7ff3a000087eb00d0
:100a400008003700080278003400fb000404780036
:100a5000efa89700b8010700e10f40000100320045
:100a60008d06e800090278008404e900e00f5200d6
:100a7000f4ff3a00e00f5600a301320007003700f0
:100a8000efa8970000022000ab010700e10f400033
:100a9000010032008d06e8000e07e900e00f570064
:100aa000f7ff3a00980137003fb19700c202780083
:100ab000b2b79f0005007800cf80de00010178000a
:100ac00082017800f0af9f0081b79f0092b79f002e
:100ad000a3b79f004800de00c80add000080720056
:100ae000a0c79f007003660009003200e04f50006d
:100af00007003200e14f400005003200b0c79f0000
:100b00006fdb9700c6c79f00290020000300370055
:100b1000efdb9700b7c79f001900200038fc2f00bb
:100b20000f044400b0ff3700a5c79f0028fc2f002a
:100b30000f04440019002000abff3700a5c79f0039
:100b40000c0cb3008c027800050cb2002b003a00ac
:100b5000e00f560005003d003fb097004005be0085
:100b60004004be00b0b79f0017003700f0026600d7
:100b70000f003200bfb297004501be00b5b79f001d
:100b8000c2a79f00d3a79f0005037800960290009c
:100b9000cfaade00e5a79f00f5a79f004fa497000e
:100ba000dfa497006fa59700ffa597000600370008
:100bb0003fb0970040047800b0b79f00cfc4de007c
:100bc000090578008a057800e00f5400e08f5c008a
:100bd000e00f5d00e08f5d0025003d003c00b300ac
:100be0006000b8006011b800080450008984580003
:100bf0000a0559008b8559001d003700e00f56008b
:100c000005003d00bfb097004105be004104be0095
:100c1000b1b79f0016003700f00266000e003200e8
:100c2000bfb297004501be00b5b79f0082af9f00dd
:100c300093af9f000003eb00a6af9f008003eb0083
:100c4000b7af9f000fac97009fac97002fad9700f8
:100c5000bfad9700060037003fb097004004780012
:100c6000b0b79f00090020000a0020000b00200000
:100c7000e00f570007003a001e002000e00f54006c
:100c8000e08f5c00e00f5d00e08f5d00010032004e
:100c90000007eb008c007800010cb200f1af9f0060
:100ca00005042000858f50002c00320003003c001a
:100cb000e08f5000080032003c003700050820009b
:100cc0007fa99700850f510010003200050c20000d
:100cd000850f510035003a0026e6200015c0b3000c
:100ce0003600be003601be000040e10001c8e10050
:100cf00002d0e10003d8e1002b0039008542e80072
:100d0000f4cf5200f6ff3a002700370015c0b300b9
:100d100000012000010020006011b8000040e10047
:100d200001c8e10002d0e10003d8e1001e00390053
:100d3000460020000000d0008180d2000281d20055
:100d40008381d2000603e900faff3a008542e800f9
:100d5000f0cf5200f1ff3a001300370015c0b30086
:100d600080002000010020006011b8000040e10078
:100d700001c8e10002d0e10003d8e1000a00390017
:100d8000370020000000d0008180d2000281d20014
:100d90008381d2008703e900faff3a008542e80028
:100da000f5cf5200f1ff3a00a5c79f002fc0970072
:100db0008002fb008e8f520002003d00aec79f00f4
:100dc00003003700850f570001003d00050778003c
:100dd000e00f520003003200e3026600010032001f
:100de0000402e900050024008502660005003200c7
:100df0008e0f5200020034000e0252000100370034
:100e00000002eb002fc197008202fb008001eb0083
:100e1000d3af9f00850f52000200340085025200bc
:100e2000d5af9f00640266002c003200e20266002b
:100e300061026600e08f520006003200b00220001e
:100e4000e00f5200010032000080e800efa8970098
:100e500004003700e00f520006003200efa89700b0
:100e600000022000b4000700e10f40000100320042
:100e70008d06e8005faa9700e00f52008d00320057
:100e80000802be000a03be00dfac9700efa897007f
:100e900000032000c4b79f00d5b79f00e6b79f00ae
:100ea000f7b79f00a40007004fb29700dfb297008a
:100eb0006fb39700ffb39700e10f400001003200cd
:100ec0008d06e8008904e900f0ff3a00d9af9f00e1
:100ed0000605be000404be0076003700dfaa9700b6
:100ee000e08f5200180032006802660016003a00d7
:100ef0000802be000a03be00dfac9700efa897000f
:100f000000022000c4b79f00d5b79f00e6b79f003e
:100f1000f7b79f00880007004fb29700dfb2970035
:100f20006fb39700ffb39700e10f4000010032005c
:100f30008d06e8008904e900f0ff3a00d9af9f0070
:100f40000605be000404be00e202660061026600ff
:100f5000e08f520006003200b0022000e00f520085
:100f6000010032000080e800efa89700040037007d
:100f7000e00f52004f003200efa89700000220005f
:100f80006d000700e10f40004a0032008d06e800c6
:100f9000480037000e07e9007fab970007042000e8
:100fa000870f53002d00320003003c00e00f530078
:100fb0000800320037003700040820007fae970099
:100fc000840f560012003200040c2000840f5600db
:100fd00030003a004372dd00a0e52000000242002c
:100fe0005403be004402be000800be000a01be0059
:100ff00082010700a4002000050020006033b80033
:101000008501070004c3b3000442400020003700fc
:10101000b4f02000bfa29700e08f52000100320020
:10102000a4ef2000c272dd000800be000a01be006d
:101030008502e900050033008301d1000281d3005d
:101040008180d3000080d300f9ff37006f0060007b
:1010500064407800a0c79f000e0037006372b9009b
:101060000800be000a01be00040678000c06e90074
:10107000050033008301d1000281d3008180d300b9
:101080000080d300f9ff3700674260000443b000de
:10109000a4c79f00afc097000100fb00efa8970016
:1010a00025000700e10f4000060032008d06e80031
:1010b000040037000c0178000202b200b2a79f00c2
:1010c0008cbf9f00e00f5700b2ff3a000fbe9700a1
:1010d000680666000c003200dfa99700e08f51001f
:1010e0000900340003067800efa8970000022000f2
:1010f00011000700e10f4000010032008d06e800fa
:101100000c06e900f8ff3a004faa97001440780057
:10111000a0c79f00e04f50008dfd3a000d00780001
:101120004f0778004f06be004f05be004f04be00bb
:101130002f03b10000000600889fbe000104780064
:1011400038029000e20262008084eb003b00320033
:10115000040378000620b2009802900002003a00d2
:10116000e08f520035003a000490a000340498004b
:1011700080047800f90fb200e08f520002003a00bc
:10118000a8029000050c7800ea8f540005003a0090
:101190000408b20003003a0088007800d000200064
:1011a000e5ff070018029000d8029000850f52005a
:1011b0000b0032000402e8001404980018027800c2
:1011c000094a7800040ce80015c0b300a4f420001c
:1011d000054a7800ea8f540018003a0005003700ed
:1011e0008800780009407800170007008004780024
:1011f00012003700380290000410b2000f003200d5
:1012000018019000a80090004800900033090700e2
:1012100018029000840f5000040032003802900041
:101220000403b300340498008084eb000002eb0058
:101230001404980028029000040c7800090078003b
:101240004f04be00000006000200fa00889fbe00a6
:10125000a0ff9f000104780038029000840278000b
:101260000504b200020032000000fb003500370028
:10127000e202620005003a000403b300340498005f
:10128000150498000080eb002e003700d804900071
:10129000e08f540006003a0012002000e68057005c
:1012a000480090000d09070019049800230037003a
:1012b000a8029000e08f520008003a00d5f4200008
:1012c00025049800050c780025002000550498009e
:1012d000150498000430a000340498001801900010
:1012e000a800900048009000fc0807002802900029
:1012f0008082eb0015049800affa9700054a780049
:10130000040ce8002ffa9700ea4f52000b003a0055
:10131000380290000410b20008003200180190005a
:10132000a800900048009000ec0807000002eb00c5
:1013300014049800a8029000050c78002ffa97007a
:101340000400fb004f04be000080fa00000006000d
:10135000889fbe008a9fbe003004be002005be00ec
:101360000404440085844c0006054d0087854d002b
:101370000898be000a90be000440e10005c8e100e4
:1013800006d0e10007d8e10002003100680040000b
:101390001008e8004f05be004f04be000000060024
:1013a0001000fa00889fbe008a9fbe000605be009e
:1013b0000404be003002be002003be00c4b79f007c
:1013c000d5b79f00e6b79f00f7b79f00080252000d
:1013d00089825a000a035b008b835b0084bf9f00f5
:1013e00095bf9f00a6bf9f00b7bf9f000498be0097
:1013f0000698be00110020004fb29700dfb29700a0
:101400006fb39700ffb397000820e10009a8e1003f
:101410000ab0e1000bb8e100010039008000eb00e8
:10142000108810004f05be004f04be000080fa0077
:10143000000006001400fa00889fbe008a9fbe00cc
:101440008c9fbe003f0007000605be000404be00de
:101450000006eb00ccb79f00bcb79f00acb79f0065
:101460009cb79f008cb79f000d0420004fb39700de
:10147000bfb29700860343002fb29700e00f5300de
:1014800004003d003d0007000f004000b0ff0700d2
:1014900003003700390007000f004000c0ff0700bd
:1014a000cfb2970095bf9f00e08f52000900350032
:1014b0002b00070014002000050020006033b80056
:1014c000000072008180720002017300838173004a
:1014d0001c0007000c06e8008d0f5600e3ff3a00e1
:1014e0001fba9700e00f520005003d000802be0041
:1014f0000a03be0000fe2f000f00400094ff07000b
:101500004faa9700e00f520008003a000fb497006e
:101510009fb497002fb59700bfb59700d8b79f002d
:10152000e9b79f00fab79f008bbf9f000c00070030
:101530004f06be004f05be004f04be000080fa00fb
:1015400000000600010007000000060090b79f00a1
:10155000a1b79f00b2b79f00c3b79f00000006006d
:1015600001000700000006001fb09700afb0970011
:101570003fb19700cfb19700000006004f2bde006f
:1015800087037300a7b79f004f23de0085824200c8
:101590008502730095b79f00ffaa97004f2bde00ce
:1015a000040242000402730084b79f006faa9700f0
:1015b0004f23de008582420085027300f5af9f0055
:1015c000e9ff07004f18de0004024200000272002b
:1015d000e4af9f00e4ff0700000040008180480066
:1015e0000201490083814900d8ff07000802be00bc
:1015f0000a03be0000fe2f0000000600881f7800ce
:1016000018002000881f78008aff07008f87e900f4
:101610004f04780000000600801feb0085ff0700e4
:101620008f87e90000000600889fbe008a9fbe00e9
:10163000e00f5000e08f5800e00f5900e08f590094
:101640000c003d006044b8006055b8000000540034
:1016500081805c0002015d0083815d001800200034
:101660001500070008003d00180007000004eb000b
:10167000050037000004eb000f00070002003d00ea
:101680001200070018002000dcff0700e00f5400e4
:10169000060032006022b8006033b800000052003b
:1016a00081805a0002015b0083815b004f05be0010
:1016b0004f04be0000000600e00f5200e08f5a0009
:1016c000e00f5b00e08f5b00000006006044b800a4
:1016d0006055b8000402540085825c0006035d007a
:1016e00087835d0000000600889fbe008a9fbe00c1
:1016f0008c1f7800e00f5000e08f5800e00f590079
:10170000e08f59000d003d006044b8006055b800fe
:101710000000540081805c0002015d0083815d0057
:101720001c0020000820e10009a8e1000ab0e10047
:101730000bb8e1000d003d00080037000006eb008b
:10174000e00f5200e08f5a00e00f5b00e08f5b007b
:1017500006003d006044b8006055b8000402540023
:1017600085825c0006035d0087835d00aaff070099
:10177000e00f5600060032006022b8006033b80067
:101780000000520081805a0002015b0083815b00ef
:101790004f0678004f05be004f04be000000060053
:020000040000fa
:1017a000000000000000000000000000002f00000a
:1017b0000000000000070000000700000014000007
:1017c0007f1400007f140000242a00007f2a0000fc
:1017d00012c40000c8100000264600003649000070
:1017e000552200005000000005030000000000002a
:1017f000001c000022410000000000004122000007
:101800001c000000140800003e080000140800003e
:10181000083e0000080800000000000050300000f2
:101820000010000010100000101000000060000008
:10183000600000000020000010080000040200000a
:101840003e510000494500003e000000427f00007c
:1018500040000000426100005149000046210000a4
:10186000414500004b31000018140000127f0000b9
:101870001027000045450000453900003c4a0000a3
:101880004949000030010000710900000503000013
:101890003649000049490000360600004949000069
:1018a000291e000000360000360000000000000085
:1018b000563600000000000008140000224100001d
:1018c0000014000014140000141400000041000073
:1018d0002214000008020000015100000906000067
:1018e00032490000595100003e7e000011110000f5
:1018f000117e00007f49000049490000363e00008b
:1019000041410000412200007f41000041220000cf
:101910001c7f000049490000494100007f09000088
:1019200009090000013e000041490000497a000019
:101930007f080000080800007f000000417f0000d1
:101940004100000020400000413f0000017f0000f6
:1019500008140000224100007f40000040400000c9
:10196000407f0000020c0000027f00007f040000a6
:10197000081000007f3e000041410000413e000091
:101980007f09000009090000063e000041510000e7
:10199000215e00007f090000192900004646000072
:1019a0004949000049310000010100007f010000a9
:1019b000013f000040400000403f00001f200000a9
:1019c000402000001f3f000040380000403f000062
:1019d0006314000008140000630700000870000092
:1019e0000807000061510000494500004300000065
:1019f0007f41000041000000552a0000552a0000e8
:101a000055000000414100007f000000040200007a
:101a1000010200000440000040400000404000007f
:101a200000010000020400000020000054540000e7
:101a3000547800007f48000044440000383800001b
:101a400044440000442000003844000044480000a2
:101a50007f3800005454000054180000087e000035
:101a600009010000020c000052520000523e00002a
:101a70007f0800000404000078000000447d00009e
:101a80004000000020400000443d0000007f0000b6
:101a90001028000044000000004100007f400000ca
:101aa000007c000004180000047800007c0800009e
:101ab000040400007838000044440000443800006a
:101ac0007c14000014140000080800001414000026
:101ad000187c00007c080000040400000848000096
:101ae0005454000054200000043f00004440000013
:101af000203c000040400000207c00001c20000032
:101b0000402000001c3c000040300000403c000031
:101b10004428000010280000440c00005050000031
:101b2000503c000044640000544c000044fc0000a1
:101b3000fe030000030300000303000003fe000097
:101b4000fc000000101800000c060000ffff000061
:101b500000000000000200000383000083830000f7
:101b600083830000c3fe00007c020000030300002a
:101b7000c3c30000c3c30000c7fe00003cc0000098
:101b8000e0300000180c0000c6c300000100000097
:101b9000001f00003f6300006363000063630000f8
:101ba00063c3000083fc0000fec30000c3c3000049
:101bb000c3c30000c3830000000200000303000051
:101bc00003830000c3630000331f00000f7c00008c
:101bd000fec30000c3c30000c3c30000c3fe000077
:101be0003c7c0000fec30000c3c30000c3c3000070
:101bf000c3fe0000fc0f00001f300000303000006a
:101c000030300000301f00000f0000000000000016
:101c1000303000003f3f000030300000003e000048
:101c20003f3300003131000031310000313000001d
:101c30003010000030300000303000003030000044
:101c4000381f00000f03000003030000030300001f
:101c50003f3f00000303000003100000303000008d
:101c60003030000030300000301f00000f0f000047
:101c70001f3000003030000030300000301f000006
:101c80000f3800003c0600000301000000000000c7
:101c900000000000000f00001f3000003030000086
:101ca00030300000301f00000f0000003030000016
:101cb0003030000030300000301f00000f00000006
:101cc000415400002b430000574d00004f440000da
:101cd000453d0000310d00000a00000041540000a5
:101ce0002b430000574d00004f440000453d0000cd
:101cf000320d00000a000000415400002b43000098
:101d00004950000053540000413d000022250000ce
:101d1000732200000d0a000000410000542b000057
:101d200043490000504d0000555800003d30000070
:101d30000d0a000000410000542b00004349000040
:101d4000504d0000555800003d3100000d0a0000c4
:101d500000410000542b0000435700004a4100009e
:101d6000503d000022250000732200002c220000bc
:101d700025730000220d00000a00000041540000fd
:101d80002b43000049500000535400004152000012
:101d9000543d00002254000043500000222c00005b
:101da00022250000732200002c250000730d000086
:101db0000a000000415400002b430000495000007d
:101dc000434c00004f530000452700000d0a00005f
:101dd000004900006e69000074690000616c000039
:101de0006973000061740000696f00006e000000fc
:101df0004d6f000064650000203a00002063000081
:101e00006c690000656e0000740000004d6f0000fa
:101e100064650000203a0000207300006572000035
:101e2000766500007572000000410000542b000030
:101e300052530000540d00000a0000003139000028
:101e4000322e000031360000382e0000312e000006
:101e50003235000034000000415400002b430000e4
:101e6000574c0000415000000d0a00000000000027
:101e7000313a0000204400006f730000696d0000db
:101e80006574000072650000730000005265000078
:101e900063750000706500007261000074690000e5
:101ea0006f6e000020640000657300002064000075
:101eb0006f730000696d00006574000072650000ba
:101ec000732e00002e2e0000004400004f5300002f
:101ed0004925000064210000002500006400000086
:101ee00025730000203a0000202500007300000048
:101ef00041750000637500006e200000646f0000f3
:101f0000736900006d650000747200006573000065
:101f10002e000000546f000075630000686500002b
:101f2000202a0000207000006f7500007220000061
:101f300072650000746f0000757200002e2e0000a4
:101f40002e000000436f00006e6e000065780000f8
:101f5000696f00006e2e00002e2e000000000000b1
:101f6000342000003a20000044650000626f000049
:101f70006f73000074000000362000003a2000005b
:101f8000426f00006f7300007400000030200000fa
:101f90003a200000524100005a0000003139000090
:101fa000322e000031360000382e0000312e0000a5
:101fb00025640000003100003530000030000000d2
:101fc000214200004f4f0000535400000021000048
:101fd00044450000424f00004f53000054000000f1
:101fe00021520000415a000000410000542b000023
:101ff0004349000050530000454e0000443d00009e
:0c200000256400000d0a00000000000034
:020000040000fa
:10200c00000800004606000002000000000000006e
:10201c0000000000000000000000000000000000b4
:10202c0000000000000000000000000000000000a4
:10203c000000000000000000000000000000000094
:10204c000000000000000000000000000000000084
:10286c00000000000000000000000000460e000008
:10287c000c00000000000000520e000006000000da
:10288c00020000000000010000000000580e0000d3
:10289c000200000000000000fa0e00002a000000f8
:1028ac000200000030313200333435003637380046
:1028bc003941420043444500460030003132330078
:1028cc003435360037383900616263006465660060
:1028dc0000286e00756c6c00290000005a0e000078
:1028ec00a000000002000000010000000000000039
:1028fc0000000a000000000000000000006400005e
:10290c000000000000000000e803000000000000d0
:10291c0000001000270000000000000000a086004e
:10292c00010000000000000040420f000000000009
:10293c000000800096980000000000000000e100fc
:10294c00f50500000000000000ca9a003b000000e2
:10295c0000000000e40b5400020000000000e8003e
:10296c0076481700000000000010a500d4e8000015
:10297c0000000000a0724e0018090000000040008a
:10298c007a10f3005a0000000080c600a47e8d006f
:10299c000300000000c16f00f2862300000000005d
:1029ac008a5d78004563010000006400a7b3b6009f
:1029bc00e00d000000e889000423c7008a00000035
:1029cc004a0f00000600000000000000240f000069
:1029dc0026000000020000004b0f0000004b0f000f
:1029ec0009000000000200004d0f0000004d0f0018
:1029fc000e020100000000000000000000000000ba
:102a0c000602020000000000240f0000000000007d
:020000040000fa
:102a1c000200fa000002eb00040f780007003700f8
:102a2c001e0278008402420024de20000482420050
:102a3c008002eb00050a78001e0fe800140320004a
:102a4c009e027800848f5200f5ff34000080fa005b
:102a5c00000006000000fa000000eb001202070064
:102a6c008000eb000000eb00ce02070080f3280092
:102a7c005d0207000100370000000000930507000d
:102a8c000002780015032000850f5200faff3a006f
:102a9c00645521000400010000000000f7ff37001e
:102aac002c00fa00401f2000790607000000eb0004
:102abc00fd0107008000eb000000eb00b9020700ed
:102acc0060f42800480207006f0507000000eb00c7
:102adc00f5010700ceff07000002eb00040f7800a1
:102aec000002eb0014079800420037006900470011
:102afc00040009000058eb006e02470009000900b1
:102b0c00001aeb008e0278002502b00004000900c8
:102b1c00801aeb009e02e800240220000e02420004
:102b2c00851f780055f62800851f7800a10020002d
:102b3c0004007800cdf60700e4875700240220003b
:102b4c000e0242008400780000802000a1f60700ed
:102b5c0000027800e00f5200250032001e029000a7
:102b6c008402e80069024700851f7800d5f628002a
:102b7c00851f78005100200004007800bbf6070088
:102b8c00e48757006e024700250220008e82420027
:102b9c00851f7800e9024700851f780005f728009b
:102bac00851f78004101200004007800aff6070073
:102bbc00e68757009e0090000000eb0079020700aa
:102bcc006e02470004007800070207009e02e8002e
:102bdc001e0290000403420024de20000402430085
:102bec00050a78001e0290000402e8001407980001
:102bfc001e0fe800140320009e027800848f520000
:102c0c00baff340024de200014427800e04f52005a
:102c1c000e003a000000eb00a30107008000eb005f
:102c2c000000eb005f02070080f72800ee010700b0
:102c3c00310020000000eb005a020700a0f8280029
:102c4c00e9010700010037000000000024de20002d
:102c5c0014427800e04f5200940032001b0507002c
:102c6c0000027800044f98008e4a9000e4c6b3002e
:102c7c0084cf5200180032008e4a9000a4c2b300d8
:102c8c0084cf5200140032008e4a900034c2b3003c
:102c9c0084cf520010003200a572800024e5200081
:102cac00048242000e489000004a7800a472800012
:102cbc00e00f5200030032000002eb00a472880007
:102ccc000200370014002000a47288004006200087
:102cdc00ef050700750037008e4a900034c2b30030
:102cec0084cf520071003a000002eb0024079800d8
:102cfc000002eb003407980034e520001442780001
:102d0c000402fb0004007800740507000002780040
:102d1c00e00f52000e003a0024e520001442780027
:102d2c000402fb00040078006c0507000002780028
:102d3c00e00f52000600320024e520001442780017
:102d4c000402fb000403b100240798003300370091
:102d5c0024e52000144278000402fb0004007800f3
:102d6c005e05070000027800e00f52000e003a00ea
:102d7c0034e52000144278000402fb0004007800c3
:102d8c005605070000027800e00f520006003200e2
:102d9c0034e52000144278000402fb000403b10067
:102dac00240798001d00370024e520001442780009
:102dbc000402fb00040078004805070000027800bc
:102dcc00e00f52001500320034e520001442780068
:102ddc000402fb00040078004005070000027800a4
:102dec00e00f52000d00320024e520001442780060
:102dfc000402fb006a22b9000402780005e22f00ed
:102e0c008482420034e52000144278000402fb0066
:102e1c000403b10004824200240798000042eb0036
:102e2c000440780052eeb7000042eb0004407800fa
:102e3c0053eeb70014002000a4728800170037006e
:102e4c003e0290008402e8002e029000848f520013
:102e5c000f003a003e0290008402420024de200063
:102e6c000482420014027800e00f52000800340083
:102e7c003e0290008402420024de200004824200c4
:102e8c0014027800040078001000070007003700d7
:102e9c003e0290000402e80034079800be02900045
:102eac0014032000848f5200e5ff340087040700d0
:102ebc0000027800a5022000850f520062ff3a0044
:102ecc00e4fe07000080fa00000006005a00fa0039
:102edc00402f9800640247000b000900001aeb0019
:102eec00005aeb0064024700ce2a9000851f780040
:102efc0055f62800851f7800910120000400780009
:102f0c00daf50700e48757000000eb00e600070045
:102f1c008000eb000000eb00a201070020fa280063
:102f2c00310107005503070064024700f1fa28003d
:102f3c0004007800a6030700803821005405070020
:102f4c000000eb00d80007008000eb000000eb0055
:102f5c009401070064024700040078002201070076
:102f6c00210020000000eb008e01070000fb280070
:102f7c001d010700310020000000eb008901070053
:102f8c00c0fb280018010700410020000000eb00e6
:102f9c008401070060fc2800130107000042eb00cd
:102fac00044f7800010037000000000047040700c0
:102fbc0000027800044f780064c3b3009e4278008e
:102fcc0084cf52000e00320040040700000278004b
:102fdc00044f780044c3b3009e42780084cf520063
:102fec00070032003904070000027800044f780013
:102ffc0004c3b3009e42780084cf52007c003a0098
:10300c000002eb0014079800180037001b030700a0
:10301c000e0278007403b0001f000900005aeb0088
:10302c00740320000e024200ce2a9000851f780007
:10303c00e5fc2800851f78000102200004007800c0
:10304c008af50700e4875700740320000e02420043
:10305c00b1fd2800040078006e0307004006200034
:10306c000b050700100020007b0307008472800012
:10307c00e00f52000a003a0014c0b3009e02900008
:10308c00e48f5200010034000042eb009e029000dd
:10309c008502e80015079800e04f5200dbff3a006c
:1030ac0084728000e10f52004d003a00f3020700d9
:1030bc007d0247000f000900005aeb008e027800d9
:1030cc00d502b00009000900805aeb0064c3b300bc
:1030dc009e42780084cf52000c003a00d4022000ab
:1030ec000e02420005fe2800851f7800a10020007a
:1030fc00040078005df507008f87e900b47280004a
:10310c000402e800b47288001d00370044c3b30009
:10311c009e42780084cf52000f003a00b4728000b7
:10312c00e00f52000c003400d40220000e024200ca
:10313c0075fe2800851f7800a1002000040078008f
:10314c004af507008f87e900b47280000402e90099
:10315c00b47288000a003700d40220000e0242002c
:10316c0005ff2800851f7800a100200004007800ce
:10317c003ef507008f87e9000002eb00b47288006f
:10318c00d40220000e024200040078000af5070069
:10319c0000027800e40242007d024700851f78009f
:1031ac0055ff2800851f78000101200004007800dd
:1031bc002ef50700e48757007d02470004007800d5
:1031cc005402070040062000b1040700ab020700c0
:1031dc00d40220000e024200040078004d020700c9
:1031ec0040062000aa040700000000006fff370013
:1031fc00b603070000027800a5022000850f5200dc
:10320c0069ff3a005a030700800c2000a004070055
:10321c0023fe07000080fa00000006000600fa00fa
:10322c002047980021079800d4a2a9002e029000f4
:10323c00e10f520002003a00d462a80001003700ee
:10324c00d462a9000002eb00040f780010003700d4
:10325c002e429000e04f520002003500c522a9001a
:10326c0001003700c522a8002e4290000402fb008a
:10327c000402420024479800c482a800c482a8001b
:10328c00c482a800c482a800c482a9001e0fe80052
:10329c001e027800e70f5200edff3400d4a2a80004
:1032ac000080fa00000006000800fa0030079800c1
:1032bc003e029000e10f520003003a0000c2eb0006
:1032cc0044479800020037000042eb004447980046
:1032dc000002eb0014079800170037008000eb0089
:1032ec0000c8b300cdff07001e0290000442780016
:1032fc000444b0008000eb0004407800c7ff0700d6
:10330c000002eb00040f78000400370011002000cd
:10331c004e409000c1ff07001e0fe800340520004e
:10332c009e027800848f5200f8ff34001e02900039
:10333c000402e800140798001e029000e60f5200e9
:10334c00e6ff34000042eb000440780058eeb70072
:10335c000042eb000440780059eeb7008000eb000f
:10336c0000c8b300adff07008000eb0000c4b30041
:10337c00aaff07000080fa00000006000400fa0013
:10338c00204798000002eb00040f78000c00370077
:10339c002e4290000402fb000402b1006522b90029
:1033ac00040278001e02420005bd280065427a0026
:1033bc00110020000440780098ff07001e0fe80061
:1033cc001e027800e40f5200f1ff340084e5200067
:1033dc0014427800664242000440780058eeb70070
:1033ec000080fa00000006000200fa00000f7800ce
:1033fc000d0037001e027800144278001e0fe80002
:10340c0004407800ddff0700110020000040eb00b5
:10341c0082ff070084e52000144278000442e80093
:10342c000440780058eeb7001e0278001442780071
:10343c00e04f5200efff3a000080fa000000060057
:10344c000400fa00204798000002eb00040f7800fb
:10345c000b0037002e4290000402fb006a22b900d8
:10346c00040278001e02420075d9280065427a00d9
:10347c00110020000440780068ff07001e0fe800d0
:10348c001e027800e90f5200f2ff340084e52000a0
:10349c00144278008442780004c8b30004c242008d
:1034ac008000eb00044078005cff070094e52000ee
:1034bc00144278001444b0008000eb000440780003
:1034cc0056ff07000002eb00040f78000c003700d9
:1034dc002e4290000402fb006a0242006a22b900ec
:1034ec00040278001e02420075d9280065427a0059
:1034fc00110020000440780048ff07001e0fe80070
:10350c001e027800e90f5200f1ff340084e5200020
:10351c00144278006c4242000440780058eeb70028
:10352c0094e52000144278000444b0008000eb00c5
:10353c000440780039ff070084e52000144278002d
:10354c008442780004c8b30004c242008000eb003f
:10355c000440780031ff07000080fa0000000600ec
:10356c000200fa00000f7800080037001e027800f5
:10357c00144278008442780004cdb30004c24200a7
:10358c001e0fe80004407800adff07001e02780013
:10359c0014427800e04f5200f4ff3a000080fa0029
:1035ac00000006000200fa00004f78001147980056
:1035bc001e40780058eeb7001e40900059eeb70040
:1035cc0084e52000144278008442780004c8b300db
:1035dc0004c242008000eb00044078000fff07009b
:1035ec0094e52000144278000444b0008000eb0005
:1035fc000440780009ff07000080fa000000060074
:10360c000600fa002047980021079800ae40900071
:10361c000040eb00e3ff07000002eb00040f780012
:10362c00130037001e027800e10f520004003c002a
:10363c00110020000040eb00f8fe07000b003700e3
:10364c002e0290009e027800848f520004003d00f0
:10365c0011002000c0c3b300f0fe070003003700c8
:10366c00110020000040eb00ecfe07001e0fe800ec
:10367c00340520009e027800848f5200e9ff34004c
:10368c000080fa00000006000400fa0020479800b1
:10369c00ae4090000040eb00c2ff07000002eb00c0
:1036ac00040f780004003700110020000040eb00ec
:1036bc00dafe07001e0fe800340520009e02780099
:1036cc00848f5200f8ff34000080fa0000000600de
:1036dc000800fa001007980021079800320798009c
:1036ec0085e520009542780034c5b30084cf5200a4
:1036fc00020034003e0290001a0037001e029000b7
:10370c0060024200e20f520014003e003e009000a6
:10371c00000f78000d0037002e0290001442780044
:10372c000440780015ff0700110020000040eb005a
:10373c00bafe070084e52000144278000442e80039
:10374c000440780058eeb7001e0fe9001e02780006
:10375c00e00f5200f0ff3a000100370000000000bb
:10376c003e029000040078000080fa000000060081
:10377c000000fa008516800074fc2f0004826200a1
:10378c008416880005168000f4de2f000482620087
:10379c0004168800a5168000040320000482720021
:1037ac00a4168800d4a2a800d482a800401f200030
:1037bc0037030700d482a900401f20003403070000
:1037cc00d482a8000042eb000440780058eeb70009
:1037dc000042eb000440780059eeb7008000eb008b
:1037ec0010c2b3008dfe07008000eb0080ccb3004c
:1037fc008afe07008000eb0060c0b30087fe070064
:10380c008000eb0030c1b30084fe07008000eb00a9
:10381c0000c2b30081fe07008000eb00c0c0b30003
:10382c007efe07000080fa00000006000400fa008b
:10383c00000f7800214798002e4290008482fb00f4
:10384c0044062000110009008482d8000002780090
:10385c00044278009e027800844a78001e03e80037
:10386c002e4290008483fb001e02780014427800e4
:10387c008402fb00c4f92f0004aab90004027800ea
:10388c0084824300a4002000110009008402d800a7
:10389c000002780004427800044b78009e83e80014
:1038ac001e02e80014427800650f200005a2b90042
:1038bc0004027800044378001e0278001442780059
:1038cc00c509200005a2b900040278000442780062
:1038dc00844243002e42900004c242000443b000d4
:1038ec00844b78001e027800144278000443b00028
:1038fc009e027800844a78009e02e8001e02e800ce
:10390c00144278000443b000844a78001e02780008
:10391c00e30242000042eb00844a78000080fa0087
:10392c00000006000400fa00008fbe0034002000e6
:10393c009436880014f121002435880004002800f6
:10394c000411880004402000141188001e03be00de
:10395c00443add00cc32de00850272004432dd00d8
:10396c000401be000095240021232000f3f207007f
:10397c000002be00040278000402e9004411880031
:10398c004405800004c0a00004d0a00004e0a00006
:10399c00440588008560a9009560a80044e42100d6
:1039ac00040001000080fa00000006000400fa0088
:1039bc00008fbe00540020001436880034f0210023
:1039cc00343588000400280084118800044020004d
:1039dc00941188001e03be00443add00cc32de0098
:1039ec00850272004432dd000401be000095240003
:1039fc0021232000d1f207000002be00040278004f
:103a0c000402e900c4118800940580000480a00021
:103a1c000490a00004a0a0009405880087c0a90011
:103a2c0097c0a80064e62100040001000080fa00a1
:103a3c0000000600849fbe00861f78003400f8004a
:103a4c0004002000a40188000000fa008560a90091
:103a5c000e003700045980000402e800840278004c
:103a6c00f4312000848f520008003e00055980007c
:103a7c003411800004427800068020000683420046
:103a8c00044b78000502e8000459880014118000ea
:103a9c0061026200e00f5200eeff3a000080fa0073
:103aac003400f9004f0378004f02be0000400600be
:103abc00849fbe00861f78003400f80004002000ac
:103acc00a40188000000fa0087c0a9000800370094
:103adc0005648000b41180000442780026b22000f6
:103aec0006834200044b78000502e8000464880059
:103afc009411800061026200e00f5200f4ff3a0062
:103b0c000080fa003400f9004f0378004f02be0029
:103b1c00004006000800fa00300798000002eb0095
:103b2c00040f780014002000140798000002eb002a
:103b3c00040f78001c0037000000000015118000f5
:103b4c000410200004826200e00f5200fbff3200e0
:103b5c001e027800be0290000482420014427800db
:103b6c000402fb00241188000002eb0024079800db
:103b7c000002eb0024079800060037001e0290009c
:103b8c000402e800140798002e0290000402e800da
:103b9c0024079800ae029000743e2000848f5200df
:103bac00f6ff34001e0fe8001e027800be029000e3
:103bbc000482420014427800e04f5200deff3a00cb
:103bcc000080fa00000006000800fa003007980098
:103bdc000002eb00040f780014002000140798007a
:103bec000002eb00040f78001c00370000000000fe
:103bfc00951180000410200004826200e00f520036
:103c0c00fbff32001e027800be02900004824200cc
:103c1c00144278000402fb00a41188000002eb009f
:103c2c00240798000002eb002407980006003700d8
:103c3c001e0290000402e800140798002e02900067
:103c4c000402e80024079800ae029000743e2000a5
:103c5c00848f5200f6ff34001e0fe8001e0278001d
:103c6c00be0290000482420014427800e04f5200e1
:103c7c00deff3a000080fa00000006000200fa00a5
:103c8c000002eb00040f78000500370004802000d0
:103c9c009e0242000042eb00844a78001e0fe800ae
:103cac009e027800f4312000848f5200f7ff36001a
:103cbc000002eb00045988000080fa0000000600a6
:103ccc000200fa000002eb00040f78000500370038
:103cdc0024b220009e0242000042eb00844a78008d
:103cec001e0fe8009e027800d4152000848f52002d
:103cfc00f7ff36000002eb00046488000080fa0035
:103d0c00000006000000fa00141680006102620038
:103d1c0004f0a7000402ea000402e9004f22de00ce
:103d2c00040078000080fa00000006000200fa008f
:103d3c00000f78001e027800e10f520003003a00d9
:103d4c0000e6280073ff0700050037001e0278000c
:103d5c00e20f520002003a00e0e628006dff070077
:103d6c000080fa00000006008200fa00008798002c
:103d7c000e829000841f7800c4e72800841f78000e
:103d8c00010820000e00780038f20700e487570085
:103d9c000e0078005fff07000080fa0000000600ac
:103dac000200fa00000f78001e027800e00f5200ab
:103dbc0003003a00d0e8280056ff07000200370045
:103dcc00b0e9280053ff07000080fa00000006004d
:103ddc008400fa0000879800118798001e829000da
:103dec00841f78000e829000841f780094ea2800cb
:103dfc00841f7800010820000e0078001bf20700d9
:103e0c00e68757000e00780042ff07000080fa009a
:103e1c00000006008400fa000087980011879800c3
:103e2c001e829000841f78000e829000841f780000
:103e3c00e4eb2800841f7800010820000e007800b5
:103e4c000af20700e68757000e00780031ff0700e2
:103e5c000080fa00000006000600fa00881f7800b7
:103e6c00200798003a0037002e029000e00f520015
:103e7c003b0032002e0290000402e9002407980057
:103e8c000002eb00040f7800048020001407980057
:103e9c000002eb00040f7800270037001e02900090
:103eac000402e800140798001e0290009442780067
:103ebc00e4c4b30084cf52001e003a001e029000ee
:103ecc000402e8009442780054c4b30084cf52003a
:103edc0018003a001e0290000482e8009442780018
:103eec0034c4b30084cf520012003a001e0290007a
:103efc00630242009442780044c5b30084cf520060
:103f0c000c003a001e029000640242001442780039
:103f1c00ed4f520007003a001e029000650242006d
:103f2c0014427800ea4f520002003a0014002000bc
:103f3c00847288001e0fe8001e04780000802000a8
:103f4c009df1070000027800840f5400d3ff390064
:103f5c0084728000e00f5200c3ff32000100370072
:103f6c00000000004f0478000080fa0000000600fa
:103f7c000000fa0084728000e00f5200040032004e
:103f8c00a0ed2800e3fe07000002eb00847288001d
:103f9c000080fa00000006000e00fa00e4f1280090
:103fac000d000900345f7800ee00b1004e728800fd
:103fbc0014002000347288000002eb008472880028
:103fcc000000eb00b8fc07008000eb000000eb00e9
:103fdc0074fd070090ee280003fd0700210020006f
:103fec000000eb006ffd07000e007800fefc0700e0
:103ffc00310020000000eb006afd070034728000e5
:10400c00e10f520003003a0080ef2800f6fc070095
:10401c000500370034728000e20f520002003a00b3
:10402c0060f02800f0fc070050f12800b9fe0700f2
:10403c00803821001601070010ff07003472800041
:10404c000400780039ff070040062000100107002b
:10405c000aff0700447280000400780042ff07004a
:10406c00a00f20000a01070004ff07000000eb006e
:10407c004bff07004006200005010700fffe07006c
:10408c000080fa00000006000000fa00fbfe0700aa
:10409c00c0f228009ffe070080382100fc000700ba
:1040ac000080fa00000006000000fa00c942a800d7
:1040bc00c962a800d102a8006a80a8006a00a80002
:1040cc0069e0a8000080fa00000006000000fa0079
:1040dc00c982a90040012000ed0007009516800060
:1040ec000410200004826200e00f520003003a002a
:1040fc00c982a80014c3b3006600370055168000af
:10410c000440200004826200e00f520003003a00d9
:10411c00c982a80024c3b3005e0037005516800086
:10412c000480200004826200e00f520003003a0079
:10413c00c982a80034c3b30056003700c982a80056
:10414c00c9a2a90040012000d100070095168000eb
:10415c000410200004826200e00f520003003a00b9
:10416c00c9a2a80044c3b3004a003700551680000a
:10417c000440200004826200e00f520003003a0069
:10418c00c9a2a80054c3b3004200370055168000e2
:10419c000480200004826200e00f520003003a0009
:1041ac00c9a2a80064c3b3003a003700c9a2a80092
:1041bc00c9c2a90040012000b50007009516800077
:1041cc000410200004826200e00f520003003a0049
:1041dc00c9c2a80074c3b3002e0037005516800066
:1041ec000440200004826200e00f520003003a00f9
:1041fc00c9c2a80084c3b30026003700551680003e
:10420c000480200004826200e00f520003003a0098
:10421c00c9c2a80094c3b3001e003700c9c2a800cd
:10422c00c9e2a90040012000990007009516800002
:10423c000410200004826200e00f520003003a00d8
:10424c00c9e2a800a4c2b3001200370055168000c2
:10425c000440200004826200e00f520003003a0088
:10426c00c9e2a80004c3b3000a0037005516800049
:10427c000480200004826200e00f520003003a0028
:10428c00c9e2a80034c2b30002003700c9e2a8009a
:10429c00e4c6b300044078000080fa000000060079
:1042ac000200fa000002eb00040f78000500370052
:1042bc0044c820009e0242000042eb00844a780071
:1042cc001e0fe8009e027800d4152000848f520047
:1042dc00f7ff36000080fa00000006000200fa002a
:1042ec00004f78001e02fb006123b900f4fc2f0084
:1042fc00f5ff2f000602420087824a00860020004c
:10430c0007002000860f5200878f5a001c003e00c9
:10431c000460010008003700090037000a0037006c
:10432c000b0037000c0037000d0037000e00370073
:10433c000f00370010003700140020001100370068
:10434c00140020000f003700140020000d0037006f
:10435c00140020000b003700140020000900370067
:10436c00140020000700370014002000050037005f
:10437c001400200003003700140020000100370057
:10438c000002eb00040078000080fa000000060038
:10439c000000fa000e00070023000700f41f2000a5
:1043ac006419880040ff070000102e000100200057
:1043bc005cfd070000102e00010020007bfd0700b3
:1043cc00ebfc0700f4fe0700a2f90700ffff370023
:1043dc000000fa00243a80000480a1000490a1009f
:1043ec0004a0a100243a8800253a800004fe2f0086
:1043fc0004826200243a8800353a800004e02f00e1
:10440c00848262006402200004827200343a8800c4
:10441c00243a80000460a1000470a100243a8800b2
:10442c000080fa00000006000000fa0004092000d9
:10443c0014088800040328002408880005e1a8005b
:10444c009460a8000002eb00040888000080fa00c9
:10445c0000000600841f78003400f80004002000df
:10446c00a40188000000fa000002eb000408880098
:10447c008460a900146480000402e80014648800bd
:10448c000080fa003400f9004f027800004006006a
:10449c000200fa00000f78000002eb0014648800a0
:1044ac0000000000146480009e0f5200fdff3500d8
:0844bc000080fa000000060078
:020000040000fa
:0200000401f009
:040000003fff0000be
:020000040000fa
:0200000401f009
:04000400ffff0000fa
:020000040000fa
:0200000401f009
:04000800ffff0000f6
:020000040000fa
:0200000401f009
:04000c0079ff000078
:020000040000fa
:0200000401f009
:040010005fff00008e
:020000040000fa
:0200000401f009
:040014007fff00006a
:020000040000fa
:0200000401f009
:04001800ffff0000e6
:020000040000fa
:0200000401f009
:04001c00dfff000002
:00000001FF
