:020000040000fa
:080000000002040000000000f2
:020000040000fa
:100008009c0200009c0200009c0200009c02000070
:100018009c0200009c0200009c0200009c02000060
:100028009c0200009c0200009c020000d4350000e5
:100038009c0200009c0200009c0200009c02000040
:100048009c0200009c0200009c020000b2300000ec
:100058009c0200009c0200009c0200009c02000020
:100068009c0200009c0200009c0200009c02000010
:100078009c0200009c0200009c0200009c02000000
:100088009c0200009c0200009c0200009c020000f0
:100098009c0200009c020000f03000009c0200005e
:1000a8009c0200009c0200009c0200009c020000d0
:1000b8009c0200009c0200009c0200009c020000c0
:1000c8009c0200009c0200009c0200009c020000b0
:1000d8009c0200009c0200009c0200009c020000a0
:1000e8009c0200009c0200009c0200009c02000090
:1000f8009c0200009c0200009c0200009c02000080
:100108009c0200009c0200009c0200009c0200006f
:100118009c0200009c0200009c0200009c0200005f
:100128009c0200009c0200009c0200009c0200004f
:100138009c0200009c0200009c0200009c0200003f
:100148009c0200009c0200009c0200009c0200002f
:100158009c0200009c0200009c0200009c0200001f
:100168009c0200009c0200009c0200009c0200000f
:100178009c0200009c0200009c0200009c020000ff
:100188009c0200009c0200009c0200009c020000ef
:100198009c0200009c0200009c0200009c020000df
:1001a8009c0200009c0200009c0200009c020000cf
:1001b8009c0200009c0200009c0200009c020000bf
:1001c8009c0200009c0200009c0200009c020000af
:1001d8009c0200009c0200009c0200009c0200009f
:1001e8009c0200009c0200009c0200009c0200008f
:0801f8009c0200009c020000c3
:020000040000fa
:100208009c0200009c0200009c0200009c0200006e
:100218009c0200009c0200009c0200009c0200005e
:100228009c0200009c0200009c020000d4350000e3
:100238009c0200009c0200009c0200009c0200003e
:100248009c0200009c0200009c020000b2300000ea
:100258009c0200009c0200009c0200009c0200001e
:100268009c0200009c0200009c0200009c0200000e
:100278009c0200009c0200009c0200009c020000fe
:100288009c0200009c0200009c0200009c020000ee
:100298009c0200009c020000f03000009c0200005c
:1002a8009c0200009c0200009c0200009c020000ce
:1002b8009c0200009c0200009c0200009c020000be
:1002c8009c0200009c0200009c0200009c020000ae
:1002d8009c0200009c0200009c0200009c0200009e
:1002e8009c0200009c0200009c0200009c0200008e
:1002f8009c0200009c0200009c0200009c0200007e
:100308009c0200009c0200009c0200009c0200006d
:100318009c0200009c0200009c0200009c0200005d
:100328009c0200009c0200009c0200009c0200004d
:100338009c0200009c0200009c0200009c0200003d
:100348009c0200009c0200009c0200009c0200002d
:100358009c0200009c0200009c0200009c0200001d
:100368009c0200009c0200009c0200009c0200000d
:100378009c0200009c0200009c0200009c020000fd
:100388009c0200009c0200009c0200009c020000ed
:100398009c0200009c0200009c0200009c020000dd
:1003a8009c0200009c0200009c0200009c020000cd
:1003b8009c0200009c0200009c0200009c020000bd
:1003c8009c0200009c0200009c0200009c020000ad
:1003d8009c0200009c0200009c0200009c0200009d
:1003e8009c0200009c0200009c0200009c0200008d
:0803f8009c0200009c020000c1
:020000040000fa
:100400002f1421000e7f24000e0188000000000040
:1004100000012000200288000c000700007c220060
:100420000100200011000700000020000000e00093
:10043000020032000000020000000000442202001e
:10044000000000000040da000000fe004440a90067
:10045000804320000000e000030032000000200084
:10046000a00188004440a800000006009101880017
:10047000800078000000eb0015003700e2804000ab
:1004800032a0b4009101ba00e280400032a0b40072
:100490009102ba00e280400032a0b4000002eb00fa
:1004a000472bde00f507b200602ce10004003a00a3
:1004b0000059eb008301e900fdff3e000400370016
:1004c0006128e100010032000082eb000400070017
:1004d0001101ba000200e000e8ff3a000000060047
:1004e0003159ba008301e9000c0032002159ba00e9
:1004f0008301e900080032000400e00003003a0034
:10050000e280400032a0b400f5ff370011d9ba00f4
:100510008301e900faff3a008100e800e180400031
:1005200032a0b40000000600d63104000000000034
:10053000f8310400000000000040da000000fe0076
:100540001004b100070035009001b1000400340030
:100550007000b100030035009001b10001003c00c3
:1005600010000500000005006900e10004003500ee
:100570006d00e100030034000002b1000100320010
:100580000000050010000500800078001106b10091
:10059000030035009101b10001003c000050a100b2
:1005a0000000060003f0a200889fbe008a9fbe00e4
:1005b0008c1f7800d6000700dd0033006450e10096
:1005c0004f0032006420e1005200320003826c00d0
:1005d00007003b000905d0000306d000820f54003d
:1005e0000c065d000200390002003200890178002b
:1005f000030678008582550004003d000003fd00dd
:100600008103fd008502ea008b854200840f7200a1
:1006100002003b0060001000e08018006011b8008c
:100620000005eb007a28e1000a0039000600780096
:10063000c75ddd00f707b200878075002d00370029
:10064000828171000a017800610560008180d1001b
:100650000080d3008502e900f9ff3b00060440005a
:100660008784480002003b0060041400e0841c0002
:100670000988a300070032008a817100828171001d
:10068000610164008904d1000884d3008b05e8006f
:10069000170037000978a30013003a000b00e000b0
:1006a000130034008b05e9000804440089844c00e1
:1006b0000a4474000978a3000d003a000b00e00022
:1006c000070034008b05e9000804440089844c00cd
:1006d00001003a000b0020000978a300f7ff320068
:1006e0000001eb0002003700828171000a017800ee
:1006f000610007000cf0a70001f0a0009500370092
:100700006420e10002003a00838f6c009500330002
:100710000801be000200be008e003700889fbe00a8
:100720008a9fbe008c1f780079000700800033008c
:1007300003866c006450e1002e0032006420e1006a
:10074000330032006150e1002f0032006120e100ef
:100750003100320085855500eb07b000090020000c
:1007600008042000050037000804440089844c0078
:100770000a0031000603430087834b000001530049
:1007800081815b00f8ff33000203be000800a00077
:100790000804440089844c00f6ff3900c639dd00a6
:1007a0008301730001003200130020008904d1008e
:1007b0000884d3000998a300050032000800a700b0
:1007c0000300a0008904d1000884d3008b05e80051
:1007d0008904d1000884d3000001eb000281d2001b
:1007e0002500070001f0a1000cf0a70001f0a00017
:1007f000580037006420e1005a0032000801be00b2
:100800000200be00f7ff37006120e1005500320012
:100810006000b800f3ff37000000200001f8270057
:10082000f0ff3700839f68000100e00002003d00f8
:1008300060001000e08018000300e00002003d00ae
:1008400060011100e08119007d0007004f00e00009
:1008500002003b0060001000e0801800000006006d
:100860001400200086003700f4ff2f0084003700ba
:1008700004002000820037008100200061805500c4
:100880000b003d000b00200061fe2f000100e10085
:100890001d00340082817100610164008904d1006f
:1008a0000884d3000000e800faff3a00710020003d
:1008b0006100640003007000020060000900320063
:1008c00061044400e0844c000988a5000500320062
:1008d0008b05e8006808e10002003a008904d100b5
:1008e0000884d300f20f20000258e10005003d000b
:1008f000c75ddd00f907b200898075000800780047
:10090000000006000bf827008b00780000000500af
:100910000004be00750007000003be000405be0011
:100920000200be0071000700844f75000000060041
:100930000200be006450e100050036006420e100c2
:10094000020036000968a30001003a000800be005a
:100950000160a0004f0678004f05be004f04be00a6
:1009600000000600f0ff2f00f1ff2700f9ff37001d
:10097000889fbe008a9fbe008c1f7800e4ff07009e
:10098000ebff330003866c006450e100240032006a
:100990006420e100270032006150e10022003200b3
:1009a0006120e100210032008b854200eb07b1009d
:1009b0000134b800003ab8000804420089844a00b3
:1009c000013ab8000030b8008880400009014a00b0
:1009d000040033000000400081804800020149000b
:1009e0008b05e900c909dd008301700001003200b8
:1009f00013002000c814de004814dd004709de00a3
:100a00001200b200c808de00088470009aff0700d8
:100a100001f0a1000cf0a70001f0a000cdff37000d
:100a20006120e100cfff32000801be000200be00dd
:100a3000f7ff37006150e100fcff3a00c9ff3700c3
:100a40006022b800060220000000d0008180d200a1
:100a50000482d2008582d2000000a000020252006f
:100a600083825a00030031000202420083824a005e
:100a70000000a1000603e900f3ff3a0000000600b1
:100a8000889fbe008a9fbe00841f7800a0ff0700d9
:100a90004f00780011003300f0ff2f00838f6c00af
:100aa00006003b00040565000a00a70008003700a7
:100ab00009f0a6001000200008003700820f540043
:100ac000838f5c00030039001000200001003e000d
:100ad0000000200009f0a7000000ea004f05be005a
:100ae0004f04be000000e00000000600c70ade0060
:100af000f107b200f50fb20008003200e1cf42006a
:100b0000020032000170a00024000500810f700077
:100b1000010032000408050044000500810f700048
:100b200002003a00140005008502e90000004000c0
:100b300081c04800fcff3b000170a00024000500bc
:100b4000ea874700889fbe008a9fbe008c9fbe0038
:100b50008e1f780081057800e08f5500010032007b
:100b6000800d7800000578008a0478000905780077
:100b70003a06fb000c0078007bfe0700e00f5000f7
:100b8000f9ff3a00d4022000840f560003003a0017
:100b90008a04780018c0b3000500370000447800cc
:100ba000b4022000840f560001003a008a04780045
:100bb0006000b8008006eb000d0578000ecdb30094
:100bc000e4c2b300010037008904e800890278001c
:100bd0007003640004003a00994f120002003a00ca
:100be0000844a000f8ff3700194678000c03fb000a
:100bf0000603b100e90f530017003e000814a000df
:100c00008802fb00e98f56000f003200f08262007c
:100c1000010032000a05e9008d06e800a20020006c
:100c200003002000e4b79f00e50907000e434600db
:100c30000683fb00070020000000430081804b007a
:100c40006fb29700e0ff3700f0826200deff3a00eb
:100c50000a05e800dcff370054c6b300844f560095
:100c6000040032008006eb0054c4b300844f5600e9
:100c70002e003a0059427800d5c2b300854f520089
:100c800002003a000834a00003003700b5c2b300e8
:100c9000854f520001003a008904e80007c3b30001
:100ca00089027800850478003943780004c3b300d2
:100cb000874f5300faff32008603fb000703b100a1
:100cc0008006eb00e98f530015003e008446530078
:100cd0008d86fb0089027800154378008603fb00af
:100ce0000703b100e98f53000d003e006a69b900a7
:100cf000844653008d86fb0082864600554378006b
:100d00008603fb000703b100e98f530004003e0097
:100d10006a69b900844653008d86fb0082864600ce
:100d200068026400010032008d06ea00e08f550081
:100d3000030032006202640001003200850d780079
:100d4000b20807000002be000003be006011b80038
:100d5000e4b79f00d5b79f00f4b79f0087bf9f00ff
:100d6000bffe0700000178006000b8006fb2970076
:100d7000dfb297007fb397008fbb9700e00f510061
:100d8000600032000a85460032f82f00820f5500bd
:100d900003003d0024022000047a88005900370037
:100da00000082000800f55000700340024022000b6
:100db000047a8800610464004d00320000002000c5
:100dc00001f82f004f003700e00f55001f003d00d5
:100dd0000a05ea0006003700922f20005301250083
:100de0000400be004dfe07000002be006a0555006b
:100df000e90f5500f8ff3c00060037000200200014
:100e0000031224000400be0044fe07000002be00de
:100e10000a05e900e00f5500f8ff3a000403be00a0
:100e200002002000030820000400be00f4b79f0069
:100e300087bf9f008afe07007fb397008fbb970094
:100e4000e00f500025003d001f003700e00f550067
:100e500007003a0021003700922f2000530125009f
:100e60000400be00c2fe07000002be006a05550075
:100e7000e94f5500f8ff3e00060037000200200051
:100e8000031224000400be00b9fe07000002be00e9
:100e90000a05e900e00f5500f8ff3a000403be0020
:100ea000f2ff2f00f3f727000400be00f4b79f0005
:100eb00087bf9f006cfe07007fb397008fbb970032
:100ec000e00f500005003400610464000b003200a4
:100ed00000002000010828000a00370061046400b7
:100ee0000100320007f0a2000600be000500370036
:100ef0000000200001f82700020037000000200059
:100f0000010820004f0778004f06be004f05be00c5
:100f10004f04be00af00b1000000060008ff37001c
:100f20008000eb0006ff3700889fbe000004be0073
:100f30000b00370009007800f0000700000178007e
:100f40000800be0017010700e00f50000a00320041
:100f50000800e8009900fb00d900070000047800b1
:100f6000e00f5400040032000042eb00984f1200e2
:100f7000f0ff3a000004eb00080078004f04be00c8
:100f800000000600ea874700889fbe008a9fbe00d7
:100f90008c9fbe008e1f78000107780082047800c5
:100fa0000002eb00047a8800840f57000100320031
:100fb000000f7800000578003a4678000a047800af
:100fc0000c00fb0068fd0700e00f5000faff3a003c
:100fd0008c427800d4c2b30084cf520003003a00a0
:100fe000b84278001dc0b300050037008046780085
:100ff000b4c2b30084cf520001003a00b842780076
:1010000004c3b30084cf520012003a00b842780003
:10101000e08f540002003200f08f54005c003a0070
:1010200084c7b30084cf52000300320084c5b300ec
:1010300084cf520003003a00b84278000901200032
:1010400053003700e08f540051003a00890020001f
:101050004f0037000046eb00e08f540002003a00da
:1010600009467800a90020006055b800614bb9001e
:10107000d6b79f00e7b79f000503fb000600780086
:1010800085bf9f00f6b79f002dfd07008fba970020
:101090007fb39700e00f5000050032000600780093
:1010a00039fd070097ccb300074240000500370028
:1010b0000603b100e90f530020003e0006cdb30047
:1010c00006c242008402fb00898f52001a003d00d4
:1010d0000402fb00cfa2de005fb19700efb19700e2
:1010e0000a00be00f4b79f0085bf9f00b408070048
:1010f0007fb297008fba97000403400085834800b1
:101100000800e800860f5500878f5d000500360057
:1011100024022000047a88000004780010c0b30084
:101120000600370098427800000478000605be00eb
:101130001cc0b300d0ff37000040eb00e04f56006a
:1011400003003200e00f570001003200080fe900f1
:10115000e14f500005003200e0cf5600050032009c
:1011600060051500e0851d00020037000085eb00da
:101170008085eb000a00be004f0778004f06be00d6
:101180004f05be004f04be00af00b10000000600d6
:101190001cc0b300b4ff37000200fa00889fbe00f5
:1011a0008a9fbe008c1f780080057800810478003b
:1011b0000002eb00047a88000b0678000c0578002a
:1011c0000a0678003c4478000800fb00a2bf9f009c
:1011d000e5fc07002fb99700e00f5000f7ff3a0039
:1011e000d4c2b300844f54000300320004c2e900ab
:1011f000844f540002003a000a05e800010037005d
:1012000004447800890078000a0078005dff070038
:10121000e08f540007003200990f550025003a0076
:101220008b0c780023003700e00f5000e08f58004f
:101230000f003a00b4c2b300844f540004003a00d7
:10124000e00f5000e08f580015003d000800370007
:10125000d4c2b300844f540011003a0004002000af
:1012600005002800840f5000858f58000a003600c2
:1012700024022000047a8800f0ff2f00f1ff2700ed
:101280006b424200844f540005003a0000002000e9
:10129000010028000200370060001000e080180004
:1012a0004f0678004f05be004f04be000080fa00d4
:1012b00000000600998f5500deff3a00daff370084
:1012c000881f78000002eb006103b8000604780074
:1012d0006121b80006004100e842790081cf520048
:1012e000040032000402e800e0cf5200f8ff3a00a8
:1012f0000000eb004f0478000000060000027800b8
:101300000000eb00840278000401e80003002000e4
:101310006103b800860041000000e80065437b00df
:10132000e04f5300faff3a000482ea0004804000d4
:10133000cf80de00000006000000fa00e8815700c0
:101340004fb99700020007000080fa000000060075
:101350000c00fa0000027800820278000000eb0026
:10136000e18f50000d0036008100e900f1bf9f00c1
:10137000b0bf9f00a4bf9f00c4bf9f00240c2000eb
:10138000d4bf9f0003017800850078006c8057006f
:10139000d20007002fba9700004aeb000080fa0045
:1013a000000006000b00370030427800e04f52008a
:1013b000030032000201e900b14f52000500320083
:1013c0000480fb00954278008582fb0005005000f8
:1013d0000000060081027800e00f5100f2ff3a00a1
:1013e00002007800000006000800fa00889fbe0096
:1013f0008a9fbe000084fb00d4c6b300844f500017
:10140000340036004b062000110009000b84d80080
:1014100081057800720040004300dd00a9d920005a
:10142000008044006022b8000600200007fe230070
:101430005001be004000be003f0707000002be0092
:101440000203be0084bf9f0095bf9f00a6bf9f0000
:10145000b7bf9f00aa002000110009008a85d800ac
:1014600080057800e9854500c35ddd008b8544007b
:101470003b02be002b03be000fb897009fb8970039
:101480002fb99700bfb997002b0707000002be00d5
:101490000203be0084bf9f0095bf9f00a6bf9f00b0
:1014a000b7bf9f00110009000a84d800010478002a
:1014b0004344dd00888444003902be002903be0095
:1014c0000fb897009fb897002fb99700bfb9970042
:1014d0001d003700ea4f500013003600aa0020001c
:1014e000110009000a84d800010578006904400051
:1014f0004344dd00a9d92000088444006022b800dc
:101500000600200007fe23003800be002801be00b0
:10151000090707004355dd008a8444003902be00f4
:101520002903be00080037004344dd00a4d9200091
:10153000080442006022b8000600200007fe2300d5
:101540003800be002801be00fb0607004f05be00a4
:101550004f04be000080fa00000006000800fa00f8
:10156000889fbe008a9fbe00d4c6b300e04f5000e3
:1015700022003d000040ea000004fb00844f5000c0
:101580000a00340044062000110009000404d800b9
:10159000a9002000110009008900d800e9004000de
:1015a000c308dd00aad9200020003700ea4f500010
:1015b0000f003400a4002000110009000404d8002a
:1015c000690040004300dd00a4d920000000420073
:1015d000430cdd00080242005403be004402be007a
:1015e0005001be004000be00d306070037003700a0
:1015f0004344dd00a4d92000310037000004fb0083
:10160000844f5000230034004406200011000900dc
:101610000404d800a9002000110009008900d800a6
:10162000e9004000c308dd00aace2000810045008b
:101630003102be002103be008b0920008a854500cf
:101640003b00be002b01be00bb0607000002be002f
:101650000203be0084bf9f0095bf9f00a6bf9f00ee
:10166000b7bf9f00110009000904d80001047800e9
:101670004344dd00080545003a02be002a03be00cf
:101680000fb897009fb897002fb99700bfb9970080
:10169000d5ff3700ea4f500007003400a4002000b7
:1016a000110009000404d800690040004300dd0077
:1016b000a4ce2000c5ff37004344dd00a4ce2000a7
:1016c000080442003800be002801be004f05be00dd
:1016d0004f04be000080fa00000006002f04b00096
:1016e000889fbe008a9fbe008c9fbe008e1f780020
:1016f000a0af9f00c1a79f00b2af9f006000b800dd
:101700006011b800d0a79f00e1a79f00f2a79f003b
:1017100083af9f008006eb002f043700cfa0970017
:101720008100e800c1a79f0054c2b300844f50005d
:1017300006003a00010378000006eb0000c3b30086
:1017400007c2b300b1c2b300070037000000fb00be
:10175000afa897002c040700e10f40001e043200e0
:101760008d06e8001c04370006027800b6427800b7
:10177000d2c2b30082cf52000900320005003c0003
:1017800087cf52000800320081cf52000c003a008f
:101790000700370080cf520009003a0006003700ea
:1017a0000c30a000f0ff37000c00a000eeff370067
:1017b0000c10a000ecff37000c20a000eaff37005f
:1017c00062036600010032000c00a100680366009d
:1017d000010032000c20a1000503fb000603b1004c
:1017e000e90f53000d003e0084027800070020003e
:1017f0006a3bb9003502fb000403b10086034200d6
:10180000050278001503fb000603b100e90f530041
:10181000f7ff360097af9f000a0037000003eb0088
:1018200096af9f00a6c2b30086cf520005003a00d3
:10183000bfab970047007800b7af9f0090af9f0005
:101840000402e800e5c2b30094cf120017003a008a
:101850000ce0a000e4c25200d4cf1200030032001a
:101860008402780007002000090037003fa9970094
:10187000c2017800b2af9f0083b79f000402e80066
:10188000c6c6b3000d0037006a38b90080034300b4
:10189000050278003503fb000603b100e90f530091
:1018a000f9ff360087b79f00f5ff37000cc0a00096
:1018b0008002eb0085b79f00f1ff370084037800ba
:1018c000b74278000702780086cf52002d00320020
:1018d000c7a79f00c4c6b30084cf520014003c00c9
:1018e0006842520084cf52002400320009003c00bc
:1018f0006c42520084cf52002e0032006b424200f4
:1019000084cf520071003200e0cf5200b7033200a2
:101910008e00370064c6b30084cf52001f0032002f
:101920006342420084cf520088003a00130037001f
:1019300034c7b30084cf52002200320007003c00bd
:101940006442520084cf5200170032000442e80083
:1019500084cf52007d003a001600370054c7b30010
:1019600084cf52007e0032006342420084cf520096
:1019700076003a00a5779f0010003700a5779f00fa
:1019800079003700f00366000501200001003200f5
:101990000500280005067600c8ff3700a5779f00e0
:1019a0000ca0a00070003700a5779f000c60a0007d
:1019b0006d003700a5779f000c50a0000c70a000b0
:1019c00069003700a5779f003fab9700460278007b
:1019d000b6af9f0004047800e00f520001003a0007
:1019e000c8f02000880278000002eb0001003700f8
:1019f0000402e80065437a00e04f5300fcff3a0020
:101a0000840478008fb39700e08f53000300320006
:101a1000898f530001003100870478000007eb0034
:101a20001fa89700890f50000100360009075000d9
:101a30006806660014003a0007003700afa8970058
:101a40000002200070030700e10f40000100320097
:101a50008d06e8000e07e900e00f5700f7ff3a0097
:101a60000087eb0008003700080278003400fb0014
:101a700004047800afa8970063030700e10f40005b
:101a8000010032008d06e800090278008404e900b4
:101a9000e00f5200f4ff3a00e00f56004e03320010
:101aa00007003700afa89700000220005603070088
:101ab000e10f4000010032008d06e8000e07e9004a
:101ac000e00f5700f7ff3a0043033700bfa8970025
:101ad00041027800b1af9f0004007800cf80de00a3
:101ae0000101780082017800c0af9f00d1af9f0054
:101af000e2af9f00f3af9f004800de00480add0020
:101b000000007200a0779f00f0026600090032001a
:101b1000e04f500007003200e14f40000500320066
:101b2000b0779f008fda9700c5779f0029002000cb
:101b3000030037000fdb9700b6779f0019002000e5
:101b400038fb2f000f044400aeff3700a5779f003d
:101b500028fb2f000f04440019002000a9ff3700c4
:101b6000a5779f000c0cb3000470200004026600ef
:101b7000ba013200040021000402660002003200b3
:101b80006700200087b79f007002660009003200de
:101b90003faa97004401be004400be00b4af9f00be
:101ba000c0af9f00d1af9f00e2af9f00f3af9f0097
:101bb0000a003700bfaa97004500be00b5af9f00de
:101bc000c20407000002be000203be00c4af9f00b3
:101bd000d5af9f00e6af9f00f7af9f006022b8002f
:101be0006033b8004fa89700dfa897006fa997004f
:101bf000ffa9970007040700e00f50000a003d000e
:101c00004fa89700dfa897006fa99700ffa997003a
:101c100003f0a200c0af9f00d1af9f00e2af9f00d2
:101c2000f3af9f003c00b3000002eb00b49f9f00a5
:101c30006022b8006033b8004fa89700dfa8970073
:101c40006fa99700ffa9970056040700e00f500006
:101c5000350032004fa89700dfa897006fa99700c2
:101c6000ffa99700ab05070062fb2f000f014100a1
:101c7000140507003f9897000000e9006300b900d1
:101c8000a4002000110009000400d800b09f9f00ac
:101c9000e00f500002003d000000e900b09f9f00ef
:101ca0003f9c97000840ea002cfe07004faa9700cf
:101cb000dfaa97006fab9700ffab97001e050700e8
:101cc0000002be000203be00d4a79f00e5a79f004c
:101cd000f6a79f0087af9f006022b8000600200093
:101ce00007ff2300cb030700e00f500002003d0078
:101cf0000804e9000b0037006022b800060020004d
:101d0000470224005fa09700efa097007fa19700f3
:101d10008fa99700c4030700e00f500002003500b0
:101d20000804e800b89f9f008fb29700f88f520018
:101d30000f003c0005407800abfd07000002be002c
:101d40000203be004fa89700dfa897006fa9970075
:101d5000ffa99700320307000002be000203be0085
:101d6000c4af9f00d5af9f00e6af9f00f7af9f00c5
:101d70003f9c9700e90f540015003c006022b8001a
:101d80006033b8004fa89700dfa897006fa99700ad
:101d9000ffa9970003040700e00f50003200320053
:101da0004fa89700dfa897006fa99700ffa9970099
:101db00065040700e00f5000e08f5800e00f590065
:101dc000e08f590028003a00e10f5400260034004b
:101dd0000400200005002e00b6e0220017012400b8
:101de0005fa09700efa097007fa197008fa99700b1
:101df00088030700e00f500002003d007304540008
:101e00000100370072045400b89f9f006f70970064
:101e1000d2fd07000002be000203be00d4a79f004f
:101e2000e5a79f00f6a79f0087af9f004fa89700e8
:101e3000dfa897006fa99700ffa997007f0307000d
:101e4000410407000205be000004be006000b800a7
:101e50006011b800c0af9f00d1af9f00e2af9f00fc
:101e6000f3af9f00170037004fa89700dfa8970037
:101e70006fa99700ffa99700330407000205be0071
:101e80000004be00640407000002be000203be009e
:101e90004fa89700dfa897006fa99700ffa99700a8
:101ea0001a0507000002be000203be00c4af9f0077
:101eb000d5af9f00e6af9f00f7af9f000002eb0099
:101ec000b49f9f0021e5200010c0b3000800370038
:101ed0003102be003103be000440e10005c8e1004c
:101ee00006d0e10007d8e100030039000040e80017
:101ef000f44f5000f6ff3a00a0779f003f9a9700fa
:101f00009faa9700048252000fb397000602520066
:101f10000000fb0000075200e00f530001003200f8
:101f20000e07e90063026600010032000e07e900b7
:101f3000640266001d003200e20266006102660073
:101f4000e08f520006003200b0022000e00f520085
:101f5000010032000080e800afa8970004003700bd
:101f6000e00f52000e003200afa8970000022000e0
:101f700025020700e10f4000090032008d06e8004d
:101f800007003700afa89700000320001e020700db
:101f9000e10f4000010032008d06e8000e07e90065
:101fa000e00f5700f7ff3c00300037006802660082
:101fb0000a003a0007003700afa89700000220008f
:101fc00011020700e10f4000010032008d06e80019
:101fd0000e07e900e00f5700f7ff3c00e202660041
:101fe00061026600e08f520006003200b00220005d
:101ff000e00f5200010032000080e800afa8970017
:1020000016003700e00f520018003200afa897000a
:1020100000022000110037008502fb00c32add000a
:10202000a7e42000858243005503be004502be00a0
:102030000800be000a01be0092050700a4002000af
:10204000050020006033b800950507000403200058
:1020500000024200afa8970004007800ea010700e0
:10206000e10f4000010032008d06e8002f7297005a
:102070008442e900a5779f00e04f5200e6ff3a0056
:1020800008003700afa8970000032000de0107001a
:10209000e10f4000010032008d06e8000804e9006d
:1020a000b89f9f003f9c9700e00f5400f5ff3c0055
:1020b0000fb09700f20f50000300340024c1b300aa
:1020c000a4779f00020037008fe09700a1779f0060
:1020d0002f7297008402fb000fb197008502510018
:1020e00095af9f00e04f520006003200afa8970066
:1020f000e0022000c4010700e10f400001003200af
:102100008d06e8002f70970014fd07000002be0046
:102110000203be004fa89700dfa897006fa99700a1
:10212000ffa9970004040700870307002200370077
:102130008502fb00c32add00a3e420008582410064
:102140003500be002501be0080b79f0091b79f00fb
:10215000a2b79f00b3b79f000203be000002be00fb
:102160000800be000a01be0046050700a4002000ca
:10217000050020006033b800490507000403200073
:1021800000024200afa89700040078009e010700fb
:10219000e10f4000010032008d06e8000fb2970009
:1021a0009fb297002fb39700bfb397000800be00ff
:1021b0000a01be003a0507000205be000004be0089
:1021c0002f7297008442e900a5779f00e04f5200ec
:1021d000d7ff3a000203be000002be009fac97008a
:1021e0000f003700afa8970000032000c4b79f007e
:1021f000d5b79f00e6b79f00f7b79f0082010700a1
:102200004fb29700dfb297006fb39700ffb397000c
:10221000e10f4000010032008d06e8008904e9006a
:10222000e08f5400efff3a00680666006a01320052
:10223000e00f570068013400afa8970000022000ab
:1022400071010700e10f4000010032008d06e80037
:102250000e07e900f8ff3a005f0137008c027800b2
:10226000050cb2002b003a00e00f560005003d00bf
:10227000bfa897004105be004104be00b1af9f005a
:1022800017003700700266000f0032003faa970067
:102290004401be00b4af9f0082a79f0093a79f0098
:1022a00084027800150290004fa2de00a4a79f00d0
:1022b000b4a79f000fa497009fa497002fa5970095
:1022c000bfa5970006003700bfab97004704780012
:1022d000b7af9f00cfc4de00090578008a057800fb
:1022e000e00f5400e08f5c00e00f5d00e08f5d00c8
:1022f00023003d003c00b3006022b8006033b8000a
:102300000804520089845a000a055b008b855b0033
:102310001b003700e00f560005003d003fa8970066
:102320004005be004004be00b0af9f00140037005f
:10233000f00266000c003200bfaa97004501be0003
:10234000b5af9f00c29f9f00d39f9f00e49f9f0057
:10235000f49f9f004f9c9700df9c97006f9d970014
:10236000ff9d970006003700bfab97004704780039
:10237000b7af9f00090020000a0020000b002000da
:102380000fb09700e00f500009003a001100200044
:1023900081b79f00e00f5400e08f5c00e00f5d000c
:1023a000e08f5d00020032000001eb0082b79f0069
:1023b0008c017800030cb200c3af9f00040420001e
:1023c000848f51002c00320003003c00e08f51004c
:1023d000080032003c00370004082000cfaa970014
:1023e000848f520010003200040c2000848f5200b1
:1023f00035003a0025e5200014c0b3003500be00ca
:102400003501be000040e10001c8e10002d0e1005a
:1024100003d8e1002b0039000442e800f44f5200d9
:10242000f6ff3a002700370014c0b3000001200077
:10243000010020006011b8000040e10001c8e10087
:1024400002d0e10003d8e1001e0039004600200060
:102450000000d0008180d2000281d2008381d200ae
:102460000603e900faff3a000442e800f04f520088
:10247000f1ff3a001300370014c0b30080002000c1
:10248000010020006011b8000040e10001c8e10037
:1024900002d0e10003d8e1000a0039003700200033
:1024a0000000d0008180d2000281d2008381d2005e
:1024b0008703e900faff3a000442e800f54f5200b2
:1024c000f1ff3a00a4779f002f7097000002fb00f5
:1024d0008fb09700810f520002003d00a1779f004e
:1024e000040037000fb19700840f510001003d0038
:1024f00084b79f009fa99700e08f5100040032002d
:1025000063026600020032008301e90093af9f007e
:102510000400240004026600090032001faa97008c
:102520008fb29700850f520003003400050252005d
:1025300094af9f00020037000003eb0096af9f00ae
:10254000af7397000702fb000007eb001fa897007e
:10255000840f50000100340004075000640266003c
:102560001c003200e202660061026600e08f520049
:1025700006003200b0022000e00f520001003200dd
:102580000080e800afa8970004003700e00f520079
:1025900006003200afa89700000220009a00070052
:1025a000e10f4000010032008d06e800e00f570007
:1025b00075003200afa897000003200092000700ca
:1025c000e10f4000010032008d06e8000e07e9002f
:1025d000f6ff3700e00f57000a003200680266007d
:1025e00008003a00afa8970000022000860007000c
:1025f000e10f4000010032008d06e8000e07e900ff
:10260000f8ff3a00e202660061026600e08f5200c5
:1026100006003200b0022000e00f5200010032003c
:102620000080e800afa8970004003700e00f5200d8
:1026300055003200afa8970000022000720007008a
:10264000e10f4000500032008d06e8004e003700d8
:102650008fb097008100e90081b79f004fa99700d4
:1026600003042000830f51003000320003003c00bf
:10267000e00f5100080032003b0037000408200042
:10268000cfaa9700848f520014003200040c20005f
:10269000848f520034003a000fb397004332dd00bc
:1026a000a7e42000070242005403be004402be001b
:1026b0000800be000a01be00f2030700a4002000cb
:1026c000050020006033b800f50307000cc3b30019
:1026d0000c464000ac779f0023003700b4ef200089
:1026e0001fa89700e00f500001003200a4ee200068
:1026f0008fb09700c20add000800be000a01be00cc
:102700008502e900050033008301d1000281d30076
:102710008180d3000080d300f9ff37006f00600094
:1027200064407800a0779f000f0037000fb197003a
:102730006312b9000800be000a01be00040678005a
:102740000c06e900050033008301d1000281d300ab
:102750008180d3000080d300f9ff3700674260001a
:102760000443b000a4779f00af7097000100fb0006
:10277000afa8970024000700e10f400006003200d8
:102780008d06e800040037000c0178000202b20058
:1027900092af9f008cbf9f008fb19700e08f5100d8
:1027a000abff3a000fbe9700680666000a003200d1
:1027b000e00f570008003400afa897000002200087
:1027c00011000700e10f4000010032008d06e80013
:1027d0000e07e900f8ff3a004fa297001440780076
:1027e000a0779f00e04f5000ccfb3a000d0078002e
:1027f0004f0778004f06be004f05be004f04be00d5
:102800002f04b10000000600889fbe00010478007c
:1028100038029000e20262008084eb003b0032004c
:10282000040378000620b2009802900002003a00eb
:10283000e08f520035003a000490a0003404980064
:1028400080047800f90fb200e08f520002003a00d5
:10285000a8029000050c7800ea8f540005003a00a9
:102860000408b20003003a0088007800d00020007d
:10287000e5ff070018029000d8029000850f520073
:102880000b0032000402e8001404980018027800db
:10289000094a7800040ce80015c0b300a4f3200036
:1028a000054a7800ea8f540018003a000500370006
:1028b000880078000940780017000700800478003d
:1028c00012003700380290000410b2000f003200ee
:1028d00018019000a8009000480090004c0d0700df
:1028e00018029000840f500004003200380290005b
:1028f0000403b300340498008084eb000002eb0072
:102900001404980028029000040c78000900780054
:102910004f04be00000006000200fa00889fbe00bf
:10292000a0ff9f0001047800380290008402780024
:102930000504b200020032000000fb003500370041
:10294000e202620005003a000403b3003404980078
:10295000150498000080eb002e003700d80490008a
:10296000e08f540006003a0012002000e680570075
:1029700048009000260d0700190498002300370036
:10298000a8029000e08f520008003a00d5f3200022
:1029900025049800050c78002500200055049800b7
:1029a000150498000430a000340498001801900029
:1029b000a800900048009000150d07002802900024
:1029c0008082eb0015049800affa9700054a780062
:1029d000040ce8002ffa9700ea4f52000b003a006f
:1029e000380290000410b200080032001801900074
:1029f000a800900048009000050d07000002eb00c1
:102a000014049800a8029000050c78002ffa970093
:102a10000400fb004f04be000080fa000000060026
:102a20002800fa00889fbe008a9fbe008c9fbe00cf
:102a300007067800878669000c003b0003047800d5
:102a40008704780008f0a10009f0a100840f50006d
:102a5000858f5800860f5900890f5c0003003300f2
:102a60000cf0a20001003a000cf0a100fe000700eb
:102a70006400e1005f003200780147006408e10073
:102a8000610032006c014700748557003200be00bf
:102a90001201be003a04be001a05be001e039000db
:102aa000be0a90008503530006003d000004fd00af
:102ab0008104fd000205fd008305fd008703ea0097
:102ac000050378000df8a300040032006004140030
:102ad000e0841c0060051d00e0851d006022b80038
:102ae0007d0320000d38e1008006eb000b0039006b
:102af0004433dd00f300b200830173003900370076
:102b0000848272000d027800e10664008b85d1009a
:102b10000a85d3008984d3000884d3008703e900a1
:102b2000f7ff3b0008004000898048000a01490087
:102b30008b81490004003b0060001000e080180019
:102b400060011900e08119000358a3000900320058
:102b50008d82720084827200610260008301d10064
:102b60000281d3008180d3000080d3000603e800f7
:102b70001b0037000348a30017003a000600e000de
:102b8000170034000603e9000d00a3000000480010
:102b90008180480002014900838149000348a30065
:102ba0000f003a000600e000090034000603e900c7
:102bb00000004000818048000201490083814900f3
:102bc00001003a000003eb000348a300f5ff3200c8
:102bd0006022b800020037008482720061826600c1
:102be0007500070003f0a1000cf0a70003f0a0009f
:102bf000b1003700640147006408e10002003a00b8
:102c00000df8a300a9003a003200be001201be0078
:102c1000a90037008f1fd100030307008f87e90049
:102c20000000e00000000600809feb00fe020700ad
:102c30008f87e9000000e000000006002800fa008d
:102c4000889fbe008a9fbe008c9fbe0003866b00db
:102c5000850007006400e100440032006408e100e0
:102c60004a0032006100e100460032006108e100e4
:102c700049003200ec0647006000b8003d02be008b
:102c80003d03be00f48657006011b8003d04be004d
:102c90003d05be007d0320000b0037000000a000b2
:102ca0008d06e900130032000402420085824a00ca
:102cb00006034b0087834b000000400081804800e2
:102cc00002014900838149000802520089825a00aa
:102cd0000a035b008b835b00f0ff3b0008024200ad
:102ce00089824a000a034b008b834b008d06e90062
:102cf000edff3a008482720086827200f707b2000c
:102d00008782720001003200150020001e0490002e
:102d10003e0b900006035400e63fb0000368a3009a
:102d2000070032000000a7000500a0008301d100c9
:102d30000281d3008180d3000080d3000603e80025
:102d40008301d1000281d3008180d3000080d300b1
:102d50000002eb000482d2001700070003f0a1007c
:102d60000cf0a70003f0a0005300370064024700f6
:102d70006408e1004d0032003400be003401be00a2
:102d8000f6ff37006108e100480032006011b8002a
:102d90006000b800f1ff370003ff270002002000a9
:102da000fbff3700801feb009f0207008f87e900c1
:102db0000000e0000000060018002000570020007e
:102dc000080453000d003d000600200097fc2f0072
:102dd0000740e1001e00340084827200610260003e
:102de0008301d1000281d3008180d3000080d30011
:102df0000804e800f8ff3a00470020006104600082
:102e000005047400040464000d00320061004000f9
:102e1000e080480060014900e081490003b8a50056
:102e2000070032000603e8006538e10004003a00bc
:102e30008301d1000281d3008180d3000080d300c0
:102e4000f87f20000830e100030035000803780017
:102e50006000b8006011b8004433dd00f300b20038
:102e60008301730000000600680447000294be005e
:102e70000094be00fc0447008694be008494be000b
:102e800009007800b102070008007800af020700cf
:102e900099007800814f70000b003b000800be00d5
:102ea0008a0207004f00b10003003700f3ff27003c
:102eb000f2ff2f006110b9004f06be004f05be00a3
:102ec0004f04be000080fa00000006008103780075
:102ed00006f707000001be006000b8000478a300f8
:102ee00013003a006220e10015003e000d00390099
:102ef0008301d1000281d3008180d3008301d100fe
:102f00000281d3008180d3008301d1000281d300ec
:102f10008180d3000538b000c42add00f300b20080
:102f20008381720007f0a70003f0a00000000600f4
:102f3000f3ff2700f2ff2f006110b900fbff3700fd
:102f400003ff2700f7ff37001400fa00889fbe0038
:102f50008a9fbe008c9fbe000004be000205be001a
:102f6000680047000a90be000890be007702070084
:102f70000070a7000bf0a1000bf8a30020003a009e
:102f80009e0990000e099000fe0090006e009000d7
:102f90009e0290003443200084825200c6ff32001b
:102fa0000a003c00b4fc2f000428e10014003400a7
:102fb0008301d1000281d3008180d3000080d3003f
:102fc0008502e800faff3a00bbff3700b40020009a
:102fd0000428e10007003c00000040008180480018
:102fe00002014900838149008502e900faff3a00a5
:102ff000b1ff370003002800020020000100370065
:103000006011b8006000b800abff37004f89de00e8
:103010008201780074023700889fbe000082700031
:103020000402710004827100240032003643200043
:10303000c50020008383cf000a0039000541b1009c
:103040008283cf00070039000541b1008183cf00a2
:10305000040039000541b1008083cf000100390030
:103060000541b10085c353006022b8001200320050
:103070000a003b0084827200610260008301d1007b
:103080000281d3008180d3000080d3000603e800d2
:103090008743e800f7ff3a000700370000004000d0
:1030a0008180480002014900838149000603e9004c
:1030b0008743e900f9ff3a003fff07004f04be00d5
:1030c000000006001400fa00889fbe008a9fbe0020
:1030d0008c9fbe00040678000004be000205be00fe
:1030e000680047000a90be000890be001702070063
:1030f0006200e1000800be000a01be0004002000da
:103100000b003a001e029000e43fb1006e009000f8
:10311000fe0090000e0990009e099000f300b2009e
:1031200005fe2300858171000bf0a70003f0a000cd
:10313000040e780060ff37002800fa00889fbe0068
:103140008a9fbe008c9fbe0003866b0046ff07006f
:103150000028a30064003a000128a30067003a0099
:103160000008a30062003a000108a30065003a00cd
:103170001e009000be08900081064000ed3fb100a7
:10318000f4805700ee019000111ab8008e099000eb
:10319000311bb8009e099000311cb800511db800c9
:1031a000f485570046000700fe0190003a00070032
:1031b0008b85e8003e0007008e0990004000070064
:1031c000ee019000340007008b85e800380007000e
:1031d0008e099000400007009e0990001b18b8005f
:1031e000890440000a854800fe0190003400070071
:1031f0008b85e80038000700ee01900030000700e2
:103200008e0990001b18b800890440000a85480008
:103210000a98a30008003a000402420085824a008e
:1032200006034b0087834b0008044c0089844c0044
:103230000a054d008d06e900848272008502730044
:103240004c3add00850272000100320015002000ba
:10325000443ade001400b2004538de00cb45dd0004
:103260000b007000c540de00cb4ddd008b80700090
:103270004549de00cb55dd000b017100c551de0074
:103280000d037800ccfe070003f0a1000cf0a700ae
:1032900003f0a00008ff37001b18b80085024000ab
:1032a00006834800e0834b0060044c0007003700b1
:1032b0001b18b8000603400087834800faff370058
:1032c0001b18b8008703400008844800e0844c00c5
:1032d00060054d00000006001b18b80008044000ff
:1032e00089844800faff37000108a300effe3a0086
:1032f0005800be005801be00e3ff37000008a300dd
:10330000eafe3a0009047800f9ff370007f0a2004e
:10331000c3fd37001400fa00889fbe008a9fbe00dc
:103320008c9fbe000005be000206be00680047007c
:103330000c90be000a90be00840107006400e1000a
:103340001a00320016003e006100e1001a0032004f
:103350006e049000fe0490000e0b90009e0b9000f7
:103360006011b8009e0590000b38b100d501200017
:1033700082817100610164008703d1000683d3005c
:103380008984d3000884d3008502e900f8ff3a005d
:1033900039f507000df0a70001f0a000c6fe3700c8
:1033a000f1ff2700f0ff2f00c3fe370001f82700d0
:1033b00000002000f7ff37006000b800f5ff37007d
:1033c000020ab900001bb9000200b80081004200e7
:1033d0008100430000000600889fbe008a9fbe0057
:1033e0003004be002005be000404440085844c0067
:1033f00006054d0087854d000898be000a90be0066
:103400000440e10005c8e10006d0e10007d8e10072
:1034100002003100680040001008e8004f05be00bf
:103420004f04be00000006001000fa00889fbe0096
:103430008a9fbe000605be000404be003002be0026
:103440002003be00c4b79f00d5b79f00e6b79f001a
:10345000f7b79f000802520089825a000a035b00f6
:103460008b835b0084bf9f0095bf9f00a6bf9f001a
:10347000b7bf9f000498be000698be001100200050
:103480004fb29700dfb297006fb39700ffb397007a
:103490000820e10009a8e1000ab0e1000bb8e10052
:1034a000010039008000eb00108810004f05be00bd
:1034b0004f04be000080fa00000006001400fa006d
:1034c000889fbe008a9fbe008c9fbe003f00070001
:1034d0000605be000404be000006eb00ccb79f004a
:1034e000bcb79f00acb79f009cb79f008cb79f00f4
:1034f0000d0420004fb39700bfb29700860343002e
:103500002fb29700e00f530004003d003d0007007c
:103510000f004000b0ff070003003700390007002c
:103520000f004000c0ff0700cfb2970095bf9f007b
:10353000e08f5200090035002b0007001400200026
:10354000050020006033b800000072008180720026
:1035500002017300838173001c0007000c06e80061
:103560008d0f5600e3ff3a001fba9700e00f52009c
:1035700005003d000802be000a03be0000fe2f0049
:103580000f00400094ff07004faa9700e00f520081
:1035900008003a000fb497009fb497002fb597002a
:1035a000bfb59700d8b79f00e9b79f00fab79f0053
:1035b0008bbf9f000c0007004f06be004f05be00ea
:1035c0004f04be000080fa00000006000100070062
:1035d0000000060090b79f00a1b79f00b2b79f0000
:1035e000c3b79f00000006000100070000000600ae
:1035f0001fb09700afb097003fb19700cfb19700d1
:10360000000006004f2bde0087037300a7b79f0062
:103610004f23de00858242008502730095b79f002c
:10362000ffaa97004f2bde00040242000402730041
:1036300084b79f006faa97004f23de008582420067
:1036400085027300f5af9f00e9ff07004f18de0009
:103650000402420000027200e4af9f00e4ff070092
:103660000000400081804800020149008381490038
:10367000d8ff07000802be000a03be0000fe2f00ac
:1036800000000600881f780018002000881f7800be
:103690008aff07008f87e9004f04780000000600ca
:1036a000801feb0085ff07008f87e9000000060000
:1036b000889fbe008a9fbe00e00f5000e08f580038
:1036c000e00f5900e08f59000c003d006044b80045
:1036d0006055b8000000540081805c0002015d006c
:1036e00083815d00180020001500070008003d00e0
:1036f000180007000004eb00050037000004eb0091
:103700000f00070002003d00120007001800200013
:10371000dcff0700e00f5400060032006022b80012
:103720006033b8000000520081805a0002015b0043
:1037300083815b004f05be004f04be000000060001
:10374000e00f5200e08f5a00e00f5b00e08f5b005b
:10375000000006006044b8006055b8000402540040
:1037600085825c0006035d0087835d000000060023
:10377000889fbe008a9fbe008c1f7800e00f50001b
:10378000e08f5800e00f5900e08f59000d003d0018
:103790006044b8006055b8000000540081805c00af
:1037a00002015d0083815d001c0020000820e10013
:1037b00009a8e1000ab0e1000bb8e1000d003d00ee
:1037c000080037000006eb00e00f5200e08f5a00bf
:1037d000e00f5b00e08f5b0006003d006044b80036
:1037e0006055b8000402540085825c0006035d0049
:1037f00087835d00aaff0700e00f56000600320035
:103800006022b8006033b8000000520081805a0086
:1038100002015b0083815b004f0678004f05be000c
:103820004f04be0000000600889fbe008a9fbe00b5
:103830008c9fbe000404be000605be00809fbe0033
:10384000829fbe002f000700040678000800be001b
:103850000a01be002b000700840678004f03be005b
:103860004f02be008d4f76007fb0970013003300eb
:10387000f0ff2f008b8f6b0006003b000d066600eb
:103880000c00a7000a00370007f0a6001000200077
:103890000a003700880f5200898f5a008a0f5b0098
:1038a0008b8f5b00030039001000200001003e00f8
:1038b0000000200007f0a7000000ea004f06be004d
:1038c0004f05be004f04be0000000600e482400029
:1038d0001078a30007003200640240001178a300b2
:1038e0003400be001401be00040032000330a70003
:1038f000000006003500be001501be000330a00028
:103900000000060005ff2700058261000700320065
:103910000428e10001003200240005000600070031
:1039200001003a00440005000408050002000700f9
:10393000f9ff3a00140005006f82610081027000f7
:103940008502710085027200000006008000780088
:103950005002be005003be004439de00f700b20042
:10396000f37f200003016100090032000218e1002a
:1039700016003a0085017200830173008381730091
:103980000008200015003a00400020001300370016
:1039900085017200830173008381730005003a0082
:1039a00004a8be0006a8be00100020000b003700cf
:1039b0000201e9000402420085824a0006034b002e
:1039c00087834b000748a300f9ff32000740a0009f
:1039d00004a8be0006a8be002000200080009800b9
:1039e0009200980000000600881f78000304780009
:1039f0000300e00007003d0060001000e0801800b8
:103a000060011900e081190002003b0001f02d0067
:103a1000030037000400070008f0a70001f0a00031
:103a20004f04780000000600889fbe008a9fbe00f9
:103a300000827000040271000482710026003200ce
:103a40000004be000200be006011b8006b09200037
:103a5000950220000182cf000a0039000541b10023
:103a60000082cf00070039000541b1000982cf0074
:103a7000040039000541b1000882cf00010039007f
:103a80000541b10005425200120032000a003b001d
:103a900082817100610164008100d1000080d30047
:103aa0008984d3000884d3008b05e8000442e80031
:103ab000f7ff3a00070037000804440089844c00ef
:103ac00000004800818048008b05e9000442e900bd
:103ad000f9ff3a0068f307004f05be004f04be002f
:043ae00000000600dc
:020000040000fa
:103ae400000000000000000000000000002f0000a3
:103af40000000000000700000007000000140000a0
:103b04007f1400007f140000242a00007f2a000094
:103b140012c40000c8100000264600003649000008
:103b240055220000500000000503000000000000c2
:103b3400001c00002241000000000000412200009f
:103b44001c000000140800003e08000014080000d7
:103b5400083e00000808000000000000503000008b
:103b640000100000101000001010000000600000a1
:103b740060000000002000001008000004020000a3
:103b84003e510000494500003e000000427f000015
:103b9400400000004261000051490000462100003d
:103ba400414500004b31000018140000127f000052
:103bb4001027000045450000453900003c4a00003c
:103bc40049490000300100007109000005030000ac
:103bd4003649000049490000360600004949000002
:103be400291e00000036000036000000000000001e
:103bf40056360000000000000814000022410000b6
:103c0400001400001414000014140000004100000b
:103c140022140000080200000151000009060000ff
:103c240032490000595100003e7e0000111100008d
:103c3400117e00007f49000049490000363e000023
:103c440041410000412200007f4100004122000068
:103c54001c7f000049490000494100007f09000021
:103c640009090000013e000041490000497a0000b2
:103c74007f080000080800007f000000417f00006a
:103c84004100000020400000413f0000017f00008f
:103c940008140000224100007f4000004040000062
:103ca400407f0000020c0000027f00007f0400003f
:103cb400081000007f3e000041410000413e00002a
:103cc4007f09000009090000063e00004151000080
:103cd400215e00007f09000019290000464600000b
:103ce4004949000049310000010100007f01000042
:103cf400013f000040400000403f00001f20000042
:103d0400402000001f3f000040380000403f0000fa
:103d1400631400000814000063070000087000002a
:103d240008070000615100004945000043000000fd
:103d34007f41000041000000552a0000552a000080
:103d440055000000414100007f0000000402000013
:103d54000102000004400000404000004040000018
:103d64000001000002040000002000005454000080
:103d7400547800007f4800004444000038380000b4
:103d8400444400004420000038440000444800003b
:103d94007f3800005454000054180000087e0000ce
:103da40009010000020c000052520000523e0000c3
:103db4007f0800000404000078000000447d000037
:103dc4004000000020400000443d0000007f00004f
:103dd4001028000044000000004100007f40000063
:103de400007c000004180000047800007c08000037
:103df4000404000078380000444400004438000003
:103e04007c140000141400000808000014140000be
:103e1400187c00007c08000004040000084800002e
:103e24005454000054200000043f000044400000ab
:103e3400203c000040400000207c00001c200000ca
:103e4400402000001c3c000040300000403c0000ca
:103e54004428000010280000440c000050500000ca
:103e6400503c000044640000544c000044fc00003a
:103e7400fe030000030300000303000003fe000030
:103e8400fc000000101800000c060000ffff0000fa
:103e94000000000000020000038300008383000090
:103ea40083830000c3fe00007c02000003030000c3
:103eb400c3c30000c3c30000c7fe00003cc0000031
:103ec400e0300000180c0000c6c300000100000030
:103ed400001f00003f630000636300006363000091
:103ee40063c3000083fc0000fec30000c3c30000e2
:103ef400c3c30000c38300000002000003030000ea
:103f040003830000c3630000331f00000f7c000024
:103f1400fec30000c3c30000c3c30000c3fe00000f
:103f24003c7c0000fec30000c3c30000c3c3000008
:103f3400c3fe0000fc0f00001f3000003030000002
:103f440030300000301f00000f00000000000000af
:103f5400303000003f3f000030300000003e0000e1
:103f64003f330000313100003131000031300000b6
:103f740030100000303000003030000030300000dd
:103f8400381f00000f0300000303000003030000b8
:103f94003f3f000003030000031000003030000026
:103fa4003030000030300000301f00000f0f0000e0
:103fb4001f3000003030000030300000301f00009f
:103fc4000f3800003c060000030100000000000060
:103fd40000000000000f00001f300000303000001f
:103fe40030300000301f00000f00000030300000af
:103ff4003030000030300000301f00000f0000009f
:10400400415400002b430000574d00004f44000072
:10401400453d0000310d00000a000000415400003d
:104024002b430000574d00004f440000453d000065
:10403400320d00000a000000415400002b43000030
:1040440049500000415000003d220000257300004b
:10405400220d00000a000000415400002b43000020
:10406400495000004d550000583d0000300d00003f
:104074000a000000415400002b4300004950000096
:104084004d550000583d0000310d00000a000000ad
:10409400415400002b4300005753000041500000de
:1040a4003d22000025730000222c00002225000080
:1040b400732200002c250000642c0000300d000049
:1040c4000a000000415400002b4300004950000046
:1040d4005345000052560000455200003d31000097
:1040e4002c31000035300000300d00000a000000c3
:1040f400415400002b430000495000005345000088
:1041040052560000455200003d3000002c310000a2
:1041140035300000300d00000a0000003139000085
:10412400322e000031360000382e0000312e0000ff
:1041340025640000004900006e69000074690000f5
:10414400616c00006973000061740000696f000015
:104154006e0000004d6f000064650000203a00000e
:10416400206300006c690000656e000074000000ac
:104174004d6f000064650000203a000020730000c9
:104184006572000076650000757200000041000051
:10419400542b000052530000540d00000a0000008c
:1041a400444f000053490000256400002100000032
:1041b40000000000456e00002061000074740000df
:1041c400656e000074650000206400002761000033
:1041d40075740000686500006e7400006966000074
:1041e4006963000061740000696f00006e2e0000b6
:1041f4002e2e00000041000055540000480000002d
:10420400456e00002061000074740000656e0000bb
:104214007465000020640000652000005254000012
:10422400522e00002e2e00000041000043540000d6
:104234000025000064200000256600002025000001
:10424400662000002566000000440000656200004e
:10425400726100006e630000686500007a2000004f
:104264006c650000206400006f730000696d00003d
:1042740065740000726500002e2e00002e00000000
:10428400256400002025000064200000256600004d
:104294002025000066200000256400002044000062
:1042a400454400002b4400004f530000450000002b
:1042b400214200004f4f0000535400000042000010
:1042c4006f6f00007374000000210000444500007b
:1042d400424f00004f53000054000000646500008a
:1042e400626f00006f730000740000002152000030
:1042f400415a000000720000617a0000004400008e
:104304004f53000045000000257300000025000005
:10431400732b00002573000000500000524500007c
:10432400444f000053450000004400004544000091
:10433400004400004f530000453d000020250000cc
:104344002e330000666d000053760000000000006c
:020000040000fa
:104354000200fa00004f78001e02fb006123b9003e
:10436400f4fc2f00f5ff2f000602420087824a006a
:104374008600200007002000860f5200878f5a0015
:104384001c003e00046001000800370009003700eb
:104394000a0037000b0037000c0037000d0037000f
:1043a4000e0037000f003700100037001400200003
:1043b40011003700140020000f0037001400200003
:1043c4000d003700140020000b00370014002000fb
:1043d40009003700140020000700370014002000f3
:1043e40005003700140020000300370014002000eb
:1043f400010037000002eb00040078000080fa009e
:10440400000006000400fa00008fbe00146680005d
:10441400e00f520007003a000420210064368800af
:104424001e02be00546688006566880014002000e1
:10443400146688000080fa00000006000000fa00fc
:1044440014668000e00f5200070032000002eb0007
:10445400643688006022b800546688006566880067
:104464000002eb00146688000080fa0000000600d9
:104474000000fa0014668000040078000080fa004e
:10448400000006000601fa00889fbe008a1f78001b
:1044940092090700a7090700b10907000002eb0011
:1044a40064368800f41f20006419880000102e0070
:1044b40001002000e606070000102e000100200085
:1044c4000507070079060700a00020002809070057
:1044d400803e2000d80907001b090700007d20004a
:1044e400d5090700a400200024648800a40020004b
:1044f4003464880004002000051724004465880003
:10450400556588000400200005f8230064658800d0
:104514007565880004002000051224008465880065
:10452400956588006022b800a4658800b565880098
:104534000002eb00046688006022b800c4658800ad
:10454400d56588000002eb00040f780005003700f1
:1045540084c820009e0242000042eb00844a780096
:104564001e0fe8001e027800ff0f5200f8ff36000d
:10457400b2ff07000000eb001a0507008000eb0003
:104584000000eb00d6050700c00d2a0065050700f2
:10459400960707000f003700d10f2a0020b2200031
:1045a40060f2070000027800e00f520009003200b8
:1045b4000e82e800a20020008400780020b22000cf
:1045c400f4f207000002be000402780024648800ac
:1045d4000300370024648000e00f5200eeff320035
:1045e4000000eb00ff0407008000eb000000eb007c
:1045f400bb05070020102a004a0507007b070700b7
:104604004a00370071112a0020b2200045f2070049
:1046140000027800e00f52004400320064024700b8
:10462400a20020008400780020b22000d9f2070004
:104634000002be0004027800346488002e02900058
:10464400e4024700850078000400780032f2070095
:104654000002be00446588005565880044658000fa
:1046640055658000c4658800d56588002e029000d9
:10467400e4024700850078000400780026f2070071
:104684000002be0084658800956588002e029000b3
:10469400e402470085007800040078001ef2070059
:1046a4000002be0064658800756588000000eb00a8
:1046b400cc0407008000eb000000eb008805070035
:1046c400660247003f000900001aeb0060658000a5
:1046d4007165800086658000976580004465800070
:1046e400556580003364800066014700809fbe00ea
:1046f400869fbe00849fbe00831f7800b4112a00e9
:10470400841f7800010820000200780009f30700e4
:10471400f08757006602470004007800010507008f
:1047240080382100440907002d00370034648000dc
:10473400e00f5200b3ff32004465800055658000ed
:1047440018c0b3006011b8000400be0047f00700b1
:1047540000027800e00f520001003a000044eb0030
:10476400084278000404a200e04f5200a5ff3a007a
:10477400646580007565800018c0b3006011b800de
:104784000400be0039f0070000027800e00f520078
:1047940001003a000044eb00084278000404a2003f
:1047a400e04f520097ff3a008465800095658000d1
:1047b40018c0b3006011b8000400be002bf007005d
:1047c40000027800e00f520001003a000044eb00c0
:1047d400084278000404a200e04f520089ff3a0026
:1047e400f10607000000eb007e0407008000eb00e8
:1047f4000000eb003a05070070122a00c904070004
:10480400000000001416800061026200e00f5200f4
:10481400fcff32001416800061026200e00f5200b7
:1048240025003a00803e200003090700036680004b
:10483400c6658000d7658000e4658000f56580006a
:104844003264800021648000600820000e00400073
:10485400831f7800869fbe00849fbe00821f78005d
:10486400811f780024142a00841f78000108200086
:10487400b0f20700f0875700640820000e024200df
:10488400040078009b0607000000eb0055040700b5
:104894008000eb000000eb00110507006408200015
:1048a4000e024200040078009e04070080382100b4
:1048b400e10807000bff37000000eb004904070084
:1048c400a1152a000080200096f10700000278005c
:1048d400e00f5200100032008000eb000000eb00fb
:1048e400ff04070010162a008e040700ae06070016
:1048f400a4658000b56580000200200003f8230051
:104904000400be0027ef07000002be00a465880073
:10491400b56588003600370071162a000080200033
:1049240080f1070000027800e00f520021003200fd
:104934008000eb000000eb00e904070000172a00e8
:104944007804070098060700a4658000b565800018
:104954000200200003f823000400be0010ef07004b
:104964000002be0018c0b3006011b8000400be000d
:10497400bcef070000027800e00f520001003d0088
:104984000044eb00e04f540019003200a46580009d
:10499400b56580000200200003f823000400be0077
:1049a400ffee07000002be00a4658800b56588001c
:1049b4000f00370081172a000080200059f10700fa
:1049c40000027800e00f5200090032008000eb0082
:1049d4000000eb00c2040700d0172a0051040700ae
:1049e400710607006022b800a4658800b5658800d8
:1049f40074668000856680000200200003f02300b6
:104a04000400be00e7ee07000002be0074668800e2
:104a140085668800a4658000b5658000d2cc2c0032
:104a2400c3d423000400be00d0ef07000002be0080
:104a34000200200003f823000400be00d9ee0700a2
:104a44000002be000403be0044658000556580007a
:104a54000401be000600be00c4ef07000002be0051
:104a64000403be00c4658000d565800018c0b3008f
:104a74000401be000600be007aef070000027800c1
:104a8400e00f520001003c000044eb00e04f5400f2
:104a940015003200a4658000b5658000d2cc2c00de
:104aa400c3d423000400be00b0ef07000002be0020
:104ab4000200200003f823000400be00b9ee070042
:104ac4000002be000403be004465800055658000fa
:104ad4000401be000600be00a4ef07000002be00f1
:104ae400c4658800d565880084658000956580006c
:104af400a299290093f923000400be009bef07004c
:104b04000002be000403be00e4658000f565800079
:104b140018c0b3000401be000600be004fef07003a
:104b240000027800e00f5200010035000044eb0061
:104b3400e04f54002100320044668000e00f520030
:104b44001e003a000080eb008080eb002dfe070081
:104b5400046680000402e8000466880084c820001b
:104b640014427800e04f520009003a0014182a0059
:104b7400841f780064182a00841f78000102200032
:104b840080c82000ebf10700e4875700b600370027
:104b940014182a00841f780084c82000841f780019
:104ba40094182a00841f78000102200080c8200085
:104bb400e0f10700e6875700ab003700846580000a
:104bc400956580006266260063f823000400be0039
:104bd40066ef07000002be000403be00e465800027
:104be400f565800018c0b3000401be000600be00d5
:104bf4001aef070000027800e00f520001003500b0
:104c04000044eb00e04f540023003200246680008f
:104c1400e00f520020003a001400200024668800af
:104c240000e2240001002000f6fd07000466800075
:104c34000402e8000466880084c820001442780056
:104c4400e04f520009003a00f4182a00841f78004b
:104c540064182a00841f78000102200080c8200004
:104c6400b4f10700e48757007f003700f4182a00e6
:104c7400841f780084c82000841f780094182a00b8
:104c8400841f78000102200080c82000a9f10700d9
:104c9400e687570074003700a4658000b56580007e
:104ca400d2cc2c00c3d423000400be002fef070095
:104cb4000002be000200200003f823000400be002e
:104cc40038ee07000002be000403be004465800005
:104cd400556580000401be000600be0023ef0700f6
:104ce4000002be000404be004465800055658000d7
:104cf400a299290093f923000400be001bef0700ca
:104d04000002be001ac0b3000401be000800be00c9
:104d1400d4ee070000027800e00f520001003c00ce
:104d24000045eb00e04f55004f003200d0fd070076
:104d340000027800e00f52004b003a003466800015
:104d4400e00f52001c003a0084c82000144278008e
:104d5400e04f520009003a0074192a00841f7800b9
:104d640064182a00841f78000102200080c82000f3
:104d740070f10700e48757000a00370074192a000d
:104d8400841f780084c82000841f780094182a00a7
:104d9400841f78000102200080c8200065f107000c
:104da400e6875700140020003466880004668000fb
:104db4000402e8000466880094668000a56680000a
:104dc40018c0b3006011b8000400be00a7ee0700cd
:104dd40000027800e00f520001003a000044eb00aa
:104de400084278000404a200e04f5200040032009c
:104df400746680008566800094668800a5668800d5
:104e040094668000a566800002002000a33f240071
:104e14000400be00e3ed07000002be000403be0070
:104e2400746680008566800018c0b3000401be006b
:104e34000600be008bee070000027800e00f52006f
:104e440001003c000044eb00e04f54000600320037
:104e5400800c2000010020006afd07006022b800d9
:104e640094668800a5668800a4658000b565800006
:104e7400d2cc2c00c3d423000400be00bbee070038
:104e84000002be000200200003f823000400be005c
:104e9400c4ed07000002be000403be0044658000a8
:104ea400556580000401be000600be00afee070099
:104eb4000002be000403be006465800075658000c6
:104ec4000401be000600be00a8ee07000002be00fa
:104ed4000404be0074668000856680000200200021
:104ee400135624000400be000bee07000002be00af
:104ef4000401be000800be009cee07000002be00d4
:104f04000403be00e4658000f56580000401be0072
:104f14000600be00a3ed07000002be00e4658800a1
:104f2400f5658800210020000000eb006c030700f9
:104f3400660247000f000900001aeb00e4658000d8
:104f4400f565800066034700849fbe00b4192a00fb
:104f5400841f78000102200006007800f5f00700a5
:104f6400e68757006602470004007800ed02070058
:0c4f7400401f20003007070026fe370019
:020000040000fa
:104f800000080000a804000002000000000000006b
:104f90000000000000000000000000000000000011
:104fa0000000000000000000000000000000000001
:104fb00000000000000000000000000000000000f1
:104fc00000000000000000000000000000000000e1
:1055c00000000000a80c00002e00000000000000f9
:1055d000e80c00000200000000000000d60c0000f3
:1055e0000c00000000000000e20c000006000000bb
:1055f00000000000400f000002000000000000005a
:10560000ea0e00002a0000000200000030313200e3
:1056100033343500363738003941420043444500c1
:105620004600300031323300343536003738390027
:10563000616263006465660000286e00756c6c0032
:10564000290000004a0e0000a00000000200000037
:10565000010000000000000000000a00000000003f
:1056600000000000006400000000000000000000d6
:10567000e803000000000000000010002700000008
:105680000000000000a086000100000000000000f3
:1056900040420f00000000000000800096980000cb
:1056a000000000000000e100f5050000000000001f
:1056b00000ca9a003b00000000000000e40b540008
:1056c000020000000000e80076481700000000001b
:1056d0000010a500d4e8000000000000a0724e00f9
:1056e00018090000000040007a10f3005a00000082
:1056f0000080c600a47e8d000300000000c16f0082
:10570000f2862300000000008a5d780045630100f6
:1057100000006400a7b3b600e00d000000e88900b7
:105720000423c7008a000000ea0c000060010000aa
:10573000020000000000000000000000f03f000038
:1057400000000000000024004000000000000000f5
:105750000059400000000000000040008f400000a1
:10576000000000000088c3004000000000000000ae
:105770006af8400000000000008084002e41000014
:1057800000000000d012630041000000000084000f
:10579000d7974100000000000065cd00cd4100001a
:1057a000000020005fa002004200000000801d00f9
:1057b000af1544000000000040593e00294600009b
:1057c000000000000000f0007f000000000000006a
:1057d00000f07f000000000000000000f07f0000eb
:1057e000000000000000f0007f000000000000004a
:1057f00000f07f000000000000000000f07f0000cb
:10580000000000000000f0007f0000000000000029
:1058100000f07f000000000000000000f07f0000aa
:10582000000000000000f0003f00000000a0990010
:1058300099b93f000000000040e17a00843f000079
:105840000000e0004d6250003f00000000e0e20078
:10585000361a3f000000000080b5f800e43e00006a
:105860000000a000f7c6b0003e00000000a0f2005b
:10587000d77a3e0000000000e08e7900453e00002f
:105880000000e0000b2e11003e00000000e0df00f1
:105890007cdb3d000000000000a19c00c73b000035
:1058a000000000004c48b400390000000000200057
:1058b0006ca13700000000000000000000000000a4
:1058c00000000000000000000000000000000000d8
:1058d00000000000000000000000000000000000c8
:1058e00000000000000000000000000000000000b8
:1058f00000000000000000000000000000000000a8
:105900000000000000000000000000003a0f00004e
:105910000600000000000000140f00002600000038
:10592000020000003b0f0000003b0f0009000000d8
:10593000000200003d0f0000003d0f000e020100bc
:10594000000000000000000000000000060202004d
:0c59500000000000140f00000000000028
:020000040000fa
:10595c000600fa002047980021079800cd82a90084
:10596c002e029000e10f520002003a00cd02a80076
:10597c0001003700cd02a9000002eb00040f7800f3
:10598c00100037002e429000e04f5200020035000c
:10599c00cce2a90001003700cce2a8002e42900016
:1059ac000402fb000402420024479800ccc2a80069
:1059bc00ccc2a800ccc2a800ccc2a800ccc2a90002
:1059cc001e0fe8001e027800e70f5200edff3400b6
:1059dc00cd82a8000080fa00000006000800fa0042
:1059ec00300798003e029000e10f520003003a008d
:1059fc0000c2eb0044479800020037000042eb0065
:105a0c00444798000002eb00140798001700370079
:105a1c008000eb0000c8b300cdff07001e02900011
:105a2c00044278000444b0008000eb00044078008d
:105a3c00c7ff07000002eb00040f780004003700da
:105a4c00110020004e409000c1ff07001e0fe8001f
:105a5c00340520009e027800848f5200f8ff340039
:105a6c001e0290000402e800140798001e02900029
:105a7c00e60f5200e6ff34000042eb0004407800d1
:105a8c00e8ecb7000042eb0004407800e9ecb7000a
:105a9c008000eb0000c8b300adff07008000eb00f6
:105aac0000c4b300aaff07000080fa000000060043
:105abc000400fa00204798000002eb00040f780065
:105acc000c0037002e4290000402fb000402b100cf
:105adc006522b900040278001e02420025d7290075
:105aec0065427a00110020000440780098ff0700fe
:105afc001e0fe8001e027800e40f5200f1ff340084
:105b0c0084ce2000144278006642420004407800a3
:105b1c00e8ecb7000080fa00000006000200fa0072
:105b2c00000f78000d0037001e0278001442780038
:105b3c001e0fe80004407800ddff07001100200074
:105b4c000040eb0082ff070084ce20001442780056
:105b5c000442e80004407800e8ecb7001e0278002c
:105b6c0014427800e04f5200efff3a000080fa0038
:105b7c00000006000400fa00204798000002eb0029
:105b8c00040f78000b0037002e4290000402fb003b
:105b9c006a22b900040278001e02420095f3290023
:105bac0065427a00110020000440780068ff07006d
:105bbc001e0fe8001e027800e90f5200f2ff3400bd
:105bcc0084ce2000144278008442780004c8b300cc
:105bdc0004c242008000eb00044078005cff070028
:105bec0094ce2000144278001444b0008000eb00e6
:105bfc000440780056ff07000002eb00040f780009
:105c0c000c0037002e4290000402fb006a02420096
:105c1c006a22b900040278001e02420095f32900a2
:105c2c0065427a00110020000440780048ff07000c
:105c3c001e0fe8001e027800e90f5200f1ff34003d
:105c4c0084ce2000144278006c424200044078005c
:105c5c00e8ecb70094ce2000144278000444b00065
:105c6c008000eb000440780039ff070084ce200050
:105c7c00144278008442780004c8b30004c2420085
:105c8c008000eb000440780031ff07000080fa0030
:105c9c00000006000200fa00000f78000800370030
:105cac001e027800144278008442780004cdb300c0
:105cbc0004c242001e0fe80004407800adff07004c
:105ccc001e02780014427800e04f5200f4ff3a00b4
:105cdc000080fa00000006000200fa00004f780075
:105cec00114798001e407800e8ecb7001e40900069
:105cfc00e9ecb70084ce200014427800844278008e
:105d0c0004c8b30004c242008000eb0004407800d9
:105d1c000fff070094ce2000144278000444b0001a
:105d2c008000eb000440780009ff07000080fa00b7
:105d3c00000006000600fa00204798002107980092
:105d4c00ae4090000040eb00e3ff07000002eb00c8
:105d5c00040f7800130037001e027800e10f520088
:105d6c0004003c00110020000040eb00f8fe07008e
:105d7c000b0037002e0290009e027800848f520098
:105d8c0004003d0011002000c0c3b300f0fe07006a
:105d9c0003003700110020000040eb00ecfe070070
:105dac001e0fe800340520009e027800848f5200fc
:105dbc00e9ff34000080fa00000006000400fa003d
:105dcc0020479800ae4090000040eb00c2ff070057
:105ddc000002eb00040f78000400370011002000d3
:105dec000040eb00dafe07001e0fe800340520002f
:105dfc009e027800848f5200f8ff34000080fa0075
:105e0c00000006000800fa0010079800210798000f
:105e1c003207980085ce20009542780034c5b30037
:105e2c0084cf5200020034003e0290001a0037006a
:105e3c001e02900060024200e20f520014003e006d
:105e4c003e009000000f78000d0037002e029000ed
:105e5c00144278000440780015ff07001100200060
:105e6c000040eb00bafe070084ce200014427800fc
:105e7c000442e80004407800e8ecb7001e0fe9008b
:105e8c001e027800e00f5200f0ff3a0001003700cc
:105e9c00000000003e029000040078000080fa0030
:105eac00000006000000fa0045168000f4c32e0026
:105ebc0004826200441688006516800004202100cc
:105ecc000482720064168800cd82a800cd22a8003e
:105edc00401f200056030700cd22a900401f2000c0
:105eec0053030700cd22a8000042eb0004407800c9
:105efc00e8ecb7000042eb0004407800e9ecb70096
:105f0c008000eb0010c2b30091fe07008000eb0094
:105f1c0080ccb3008efe07008000eb0060c0b300a5
:105f2c008bfe07008000eb0030c1b30088fe070039
:105f3c008000eb0000c2b30085fe07008000eb0080
:105f4c00c0c0b30082fe07000080fa00000006000b
:105f5c000400fa00000f7800214798002e429000b0
:105f6c008482fb0044062000110009008482d800c2
:105f7c0000027800044278009e027800844a78007f
:105f8c001e03e8002e4290008483fb001e02780062
:105f9c00144278008402fb00c4f92f0004aab90053
:105fac000402780084824300a40020001100090040
:105fbc008402d8000002780004427800044b780078
:105fcc009e83e8001e02e80014427800650f200052
:105fdc0005a2b90004027800044378001e02780080
:105fec0014427800c509200005a2b900040278000b
:105ffc0004427800844243002e42900004c24200c6
:10600c000443b000844b78001e02780014427800e0
:10601c000443b0009e027800844a78009e02e80097
:10602c001e02e800144278000443b000844a780051
:10603c001e027800e30242000042eb00844a780022
:10604c000080fa00000006000400fa00008fbe0079
:10605c00340020002436880054f0210024358800b8
:10606c00040028000411880004402000141188004a
:10607c001e03be00443add00cc32de008502720005
:10608c004432dd000401be000095240021232000d1
